{
	"data": {
		"bytecode": {
			"linkReferences": {},
			"object": "6080604052348015600e575f5ffd5b5060015f8190555061257c806100235f395ff3fe6080604052600436106100a6575f3560e01c8063741bef1a11610063578063741bef1a146101b457806384b0196e146101de5780638aa6513c1461020e578063b22a6d4714610238578063b60d428814610260578063ec0e642f1461026a576100a6565b806351433042146100aa578063562beba8146100d25780635af82abf1461010e57806365e8e4f4146101385780636fec92191461016057806371b727d51461018a575b5f5ffd5b3480156100b5575f5ffd5b506100d060048036038101906100cb919061179f565b6102a6565b005b3480156100dd575f5ffd5b506100f860048036038101906100f3919061186a565b61066b565b60405161010591906118c2565b60405180910390f35b348015610119575f5ffd5b50610122610695565b60405161012f91906118ea565b60405180910390f35b348015610143575f5ffd5b5061015e60048036038101906101599190611a3b565b6106ba565b005b34801561016b575f5ffd5b50610174610979565b6040516101819190611b1b565b60405180910390f35b348015610195575f5ffd5b5061019e610a05565b6040516101ab91906118ea565b60405180910390f35b3480156101bf575f5ffd5b506101c8610a2a565b6040516101d591906118ea565b60405180910390f35b3480156101e9575f5ffd5b506101f2610a4f565b6040516102059796959493929190611c53565b60405180910390f35b348015610219575f5ffd5b50610222610b58565b60405161022f9190611cd5565b60405180910390f35b348015610243575f5ffd5b5061025e60048036038101906102599190611cee565b610b7c565b005b610268610d7f565b005b348015610275575f5ffd5b50610290600480360381019061028b9190611db7565b610e8e565b60405161029d91906118c2565b60405180910390f35b6102ae610f6b565b60055f3373ffffffffffffffffffffffffffffffffffffffff1673ffffffffffffffffffffffffffffffffffffffff1681526020019081526020015f205f8581526020019081526020015f205f9054906101000a900460ff161561033e576040517f646cf55800000000000000000000000000000000000000000000000000000000815260040160405180910390fd5b5f61038e33868686868080601f0160208091040260200160405190810160405280939291908181526020018383808284375f81840152601f19601f82011690508083019250505050505050610e8e565b9050806103c7576040517f8baa579f00000000000000000000000000000000000000000000000000000000815260040160405180910390fd5b5f60035f9054906101000a900473ffffffffffffffffffffffffffffffffffffffff1690505f8173ffffffffffffffffffffffffffffffffffffffff1663feaf968c6040518163ffffffff1660e01b815260040160a060405180830381865afa158015610436573d5f5f3e3d5ffd5b505050506040513d601f19601f8201168201806040525081019061045a9190611ebd565b5050509150505f8113610498576040517ebfc92100000000000000000000000000000000000000000000000000000000815260040160405180910390fd5b5f6064826104a69190611f61565b6a52b7d2dcc80cd2e4000000886104bd9190611f61565b6104c79190611fcf565b905080471015610503576040517f583aa02600000000000000000000000000000000000000000000000000000000815260040160405180910390fd5b600160055f3373ffffffffffffffffffffffffffffffffffffffff1673ffffffffffffffffffffffffffffffffffffffff1681526020019081526020015f205f8a81526020019081526020015f205f6101000a81548160ff0219169083151502179055505f3373ffffffffffffffffffffffffffffffffffffffff168260405161058c9061202c565b5f6040518083038185875af1925050503d805f81146105c6576040519150601f19603f3d011682016040523d82523d5f602084013e6105cb565b606091505b5050905080610606576040517f90b8ec1800000000000000000000000000000000000000000000000000000000815260040160405180910390fd5b3373ffffffffffffffffffffffffffffffffffffffff167fbb4e6bbe07780ca1bc5df4d202b1e8b160c62382ac5430fa5efcb5c579096a428a8a8560405161065093929190612040565b60405180910390a25050505050610665610faf565b50505050565b6005602052815f5260405f20602052805f5260405f205f915091509054906101000a900460ff1681565b60025f9054906101000a900473ffffffffffffffffffffffffffffffffffffffff1681565b5f6106c3610fb8565b90505f815f0160089054906101000a900460ff161590505f825f015f9054906101000a900467ffffffffffffffff1690505f5f8267ffffffffffffffff1614801561070b5750825b90505f60018367ffffffffffffffff1614801561073e57505f3073ffffffffffffffffffffffffffffffffffffffff163b145b90508115801561074c575080155b15610783576040517ff92ee8a900000000000000000000000000000000000000000000000000000000815260040160405180910390fd5b6001855f015f6101000a81548167ffffffffffffffff021916908367ffffffffffffffff16021790555083156107d0576001855f0160086101000a81548160ff0219169083151502179055505b6108446040518060400160405280600981526020017f50617973616c61727900000000000000000000000000000000000000000000008152506040518060400160405280600181526020017f3100000000000000000000000000000000000000000000000000000000000000815250610fcb565b8860015f6101000a81548173ffffffffffffffffffffffffffffffffffffffff021916908373ffffffffffffffffffffffffffffffffffffffff1602179055508760025f6101000a81548173ffffffffffffffffffffffffffffffffffffffff021916908373ffffffffffffffffffffffffffffffffffffffff1602179055508660035f6101000a81548173ffffffffffffffffffffffffffffffffffffffff021916908373ffffffffffffffffffffffffffffffffffffffff16021790555085600490816109139190612272565b50831561096e575f855f0160086101000a81548160ff0219169083151502179055507fc7f505b2f371ae2175ee4913f4499e1f2633a7b5936321eed1cdaeb6115181d26001604051610965919061238d565b60405180910390a15b505050505050505050565b60048054610986906120a2565b80601f01602080910402602001604051908101604052809291908181526020018280546109b2906120a2565b80156109fd5780601f106109d4576101008083540402835291602001916109fd565b820191905f5260205f20905b8154815290600101906020018083116109e057829003601f168201915b505050505081565b60015f9054906101000a900473ffffffffffffffffffffffffffffffffffffffff1681565b60035f9054906101000a900473ffffffffffffffffffffffffffffffffffffffff1681565b5f6060805f5f5f60605f610a61610fe1565b90505f5f1b815f0154148015610a7c57505f5f1b8160010154145b610abb576040517f08c379a0000000000000000000000000000000000000000000000000000000008152600401610ab2906123f0565b60405180910390fd5b610ac3611008565b610acb6110a6565b46305f5f1b5f67ffffffffffffffff811115610aea57610ae9611917565b5b604051908082528060200260200182016040528015610b185781602001602082028036833780820191505090505b507f0f0000000000000000000000000000000000000000000000000000000000000095949392919097509750975097509750975097505090919293949596565b7fefb3bcf6c37b04a2ea08e05bc27b3d72182415a34dd68183573c958f1d4b6c0581565b610b84610f6b565b60025f9054906101000a900473ffffffffffffffffffffffffffffffffffffffff1673ffffffffffffffffffffffffffffffffffffffff163373ffffffffffffffffffffffffffffffffffffffff1614610c0a576040517f32f34c2500000000000000000000000000000000000000000000000000000000815260040160405180910390fd5b80471015610c44576040517ff4d678b800000000000000000000000000000000000000000000000000000000815260040160405180910390fd5b5f60025f9054906101000a900473ffffffffffffffffffffffffffffffffffffffff1673ffffffffffffffffffffffffffffffffffffffff1682604051610c8a9061202c565b5f6040518083038185875af1925050503d805f8114610cc4576040519150601f19603f3d011682016040523d82523d5f602084013e610cc9565b606091505b5050905080610d04576040517f750b219c00000000000000000000000000000000000000000000000000000000815260040160405180910390fd5b60025f9054906101000a900473ffffffffffffffffffffffffffffffffffffffff1673ffffffffffffffffffffffffffffffffffffffff167fc415ae7271cc5d858b5f909291d642f934c072757e0e3a6b8097416f5c3170cb83604051610d6b919061240e565b60405180910390a250610d7c610faf565b50565b60025f9054906101000a900473ffffffffffffffffffffffffffffffffffffffff1673ffffffffffffffffffffffffffffffffffffffff163373ffffffffffffffffffffffffffffffffffffffff1614610e05576040517fd3aedf2a00000000000000000000000000000000000000000000000000000000815260040160405180910390fd5b5f3411610e3e576040517f583aa02600000000000000000000000000000000000000000000000000000000815260040160405180910390fd5b3373ffffffffffffffffffffffffffffffffffffffff167f5af8184bef8e4b45eb9f6ed7734d04da38ced226495548f46e0c8ff8d7d9a52434604051610e84919061240e565b60405180910390a2565b5f5f610e9b868686611144565b90505f610ea882856111a3565b90505f73ffffffffffffffffffffffffffffffffffffffff168173ffffffffffffffffffffffffffffffffffffffff1603610f0f576040517f8baa579f00000000000000000000000000000000000000000000000000000000815260040160405180910390fd5b60025f9054906101000a900473ffffffffffffffffffffffffffffffffffffffff1673ffffffffffffffffffffffffffffffffffffffff168173ffffffffffffffffffffffffffffffffffffffff161492505050949350505050565b60025f5403610fa6576040517f3ee5aeb500000000000000000000000000000000000000000000000000000000815260040160405180910390fd5b60025f81905550565b60015f81905550565b5f5f610fc26111cd565b90508091505090565b610fd36111f6565b610fdd8282611236565b5050565b5f7fa16a46d94261c7517cc8ff89f61c0ce93598e3c849801011dee649a6a557d100905090565b60605f611013610fe1565b9050806002018054611024906120a2565b80601f0160208091040260200160405190810160405280929190818152602001828054611050906120a2565b801561109b5780601f106110725761010080835404028352916020019161109b565b820191905f5260205f20905b81548152906001019060200180831161107e57829003601f168201915b505050505091505090565b60605f6110b1610fe1565b90508060030180546110c2906120a2565b80601f01602080910402602001604051908101604052809291908181526020018280546110ee906120a2565b80156111395780601f1061111057610100808354040283529160200191611139565b820191905f5260205f20905b81548152906001019060200180831161111c57829003601f168201915b505050505091505090565b5f61119a7fefb3bcf6c37b04a2ea08e05bc27b3d72182415a34dd68183573c958f1d4b6c0585858560405160200161117f9493929190612427565b60405160208183030381529060405280519060200120611287565b90509392505050565b5f5f5f5f6111b186866112a0565b9250925092506111c182826112f5565b82935050505092915050565b5f7ff0c57e16840df040f15088dc2f81fe391c3923bec73e23a9662efc9c229c6a005f1b905090565b6111fe611457565b611234576040517fd7e6bcf800000000000000000000000000000000000000000000000000000000815260040160405180910390fd5b565b61123e6111f6565b5f611247610fe1565b90508281600201908161125a9190612272565b508181600301908161126c9190612272565b505f5f1b815f01819055505f5f1b8160010181905550505050565b5f611299611293611475565b83611483565b9050919050565b5f5f5f60418451036112e0575f5f5f602087015192506040870151915060608701515f1a90506112d2888285856114c3565b9550955095505050506112ee565b5f600285515f1b9250925092505b9250925092565b5f60038111156113085761130761246a565b5b82600381111561131b5761131a61246a565b5b031561145357600160038111156113355761133461246a565b5b8260038111156113485761134761246a565b5b0361137f576040517ff645eedf00000000000000000000000000000000000000000000000000000000815260040160405180910390fd5b600260038111156113935761139261246a565b5b8260038111156113a6576113a561246a565b5b036113ea57805f1c6040517ffce698f70000000000000000000000000000000000000000000000000000000081526004016113e1919061240e565b60405180910390fd5b6003808111156113fd576113fc61246a565b5b8260038111156114105761140f61246a565b5b0361145257806040517fd78bce0c0000000000000000000000000000000000000000000000000000000081526004016114499190611cd5565b60405180910390fd5b5b5050565b5f611460610fb8565b5f0160089054906101000a900460ff16905090565b5f61147e6115aa565b905090565b5f6040517f190100000000000000000000000000000000000000000000000000000000000081528360028201528260228201526042812091505092915050565b5f5f5f7f7fffffffffffffffffffffffffffffff5d576e7357a4501ddfe92f46681b20a0845f1c11156114ff575f6003859250925092506115a0565b5f6001888888886040515f815260200160405260405161152294939291906124b2565b6020604051602081039080840390855afa158015611542573d5f5f3e3d5ffd5b5050506020604051035190505f73ffffffffffffffffffffffffffffffffffffffff168173ffffffffffffffffffffffffffffffffffffffff1603611593575f60015f5f1b935093509350506115a0565b805f5f5f1b935093509350505b9450945094915050565b5f7f8b73c3c69bb8fe3d512ecc4cf759cc79239f7b179b0ffacaa9a75d522b39400f6115d461160d565b6115dc611683565b46306040516020016115f29594939291906124f5565b60405160208183030381529060405280519060200120905090565b5f5f611617610fe1565b90505f611622611008565b90505f8151111561163e57808051906020012092505050611680565b5f825f015490505f5f1b811461165957809350505050611680565b7fc5d2460186f7233c927e7db2dcc703c0e500b653ca82273b7bfad8045d85a47093505050505b90565b5f5f61168d610fe1565b90505f6116986110a6565b90505f815111156116b4578080519060200120925050506116f7565b5f826001015490505f5f1b81146116d0578093505050506116f7565b7fc5d2460186f7233c927e7db2dcc703c0e500b653ca82273b7bfad8045d85a47093505050505b90565b5f604051905090565b5f5ffd5b5f5ffd5b5f819050919050565b61171d8161170b565b8114611727575f5ffd5b50565b5f8135905061173881611714565b92915050565b5f5ffd5b5f5ffd5b5f5ffd5b5f5f83601f84011261175f5761175e61173e565b5b8235905067ffffffffffffffff81111561177c5761177b611742565b5b60208301915083600182028301111561179857611797611746565b5b9250929050565b5f5f5f5f606085870312156117b7576117b6611703565b5b5f6117c48782880161172a565b94505060206117d58782880161172a565b935050604085013567ffffffffffffffff8111156117f6576117f5611707565b5b6118028782880161174a565b925092505092959194509250565b5f73ffffffffffffffffffffffffffffffffffffffff82169050919050565b5f61183982611810565b9050919050565b6118498161182f565b8114611853575f5ffd5b50565b5f8135905061186481611840565b92915050565b5f5f604083850312156118805761187f611703565b5b5f61188d85828601611856565b925050602061189e8582860161172a565b9150509250929050565b5f8115159050919050565b6118bc816118a8565b82525050565b5f6020820190506118d55f8301846118b3565b92915050565b6118e48161182f565b82525050565b5f6020820190506118fd5f8301846118db565b92915050565b5f5ffd5b5f601f19601f8301169050919050565b7f4e487b71000000000000000000000000000000000000000000000000000000005f52604160045260245ffd5b61194d82611907565b810181811067ffffffffffffffff8211171561196c5761196b611917565b5b80604052505050565b5f61197e6116fa565b905061198a8282611944565b919050565b5f67ffffffffffffffff8211156119a9576119a8611917565b5b6119b282611907565b9050602081019050919050565b828183375f83830152505050565b5f6119df6119da8461198f565b611975565b9050828152602081018484840111156119fb576119fa611903565b5b611a068482856119bf565b509392505050565b5f82601f830112611a2257611a2161173e565b5b8135611a328482602086016119cd565b91505092915050565b5f5f5f5f60808587031215611a5357611a52611703565b5b5f611a6087828801611856565b9450506020611a7187828801611856565b9350506040611a8287828801611856565b925050606085013567ffffffffffffffff811115611aa357611aa2611707565b5b611aaf87828801611a0e565b91505092959194509250565b5f81519050919050565b5f82825260208201905092915050565b8281835e5f83830152505050565b5f611aed82611abb565b611af78185611ac5565b9350611b07818560208601611ad5565b611b1081611907565b840191505092915050565b5f6020820190508181035f830152611b338184611ae3565b905092915050565b5f7fff0000000000000000000000000000000000000000000000000000000000000082169050919050565b611b6f81611b3b565b82525050565b611b7e8161170b565b82525050565b5f819050919050565b611b9681611b84565b82525050565b5f81519050919050565b5f82825260208201905092915050565b5f819050602082019050919050565b611bce8161170b565b82525050565b5f611bdf8383611bc5565b60208301905092915050565b5f602082019050919050565b5f611c0182611b9c565b611c0b8185611ba6565b9350611c1683611bb6565b805f5b83811015611c46578151611c2d8882611bd4565b9750611c3883611beb565b925050600181019050611c19565b5085935050505092915050565b5f60e082019050611c665f83018a611b66565b8181036020830152611c788189611ae3565b90508181036040830152611c8c8188611ae3565b9050611c9b6060830187611b75565b611ca860808301866118db565b611cb560a0830185611b8d565b81810360c0830152611cc78184611bf7565b905098975050505050505050565b5f602082019050611ce85f830184611b8d565b92915050565b5f60208284031215611d0357611d02611703565b5b5f611d108482850161172a565b91505092915050565b5f67ffffffffffffffff821115611d3357611d32611917565b5b611d3c82611907565b9050602081019050919050565b5f611d5b611d5684611d19565b611975565b905082815260208101848484011115611d7757611d76611903565b5b611d828482856119bf565b509392505050565b5f82601f830112611d9e57611d9d61173e565b5b8135611dae848260208601611d49565b91505092915050565b5f5f5f5f60808587031215611dcf57611dce611703565b5b5f611ddc87828801611856565b9450506020611ded8782880161172a565b9350506040611dfe8782880161172a565b925050606085013567ffffffffffffffff811115611e1f57611e1e611707565b5b611e2b87828801611d8a565b91505092959194509250565b5f69ffffffffffffffffffff82169050919050565b611e5581611e37565b8114611e5f575f5ffd5b50565b5f81519050611e7081611e4c565b92915050565b5f819050919050565b611e8881611e76565b8114611e92575f5ffd5b50565b5f81519050611ea381611e7f565b92915050565b5f81519050611eb781611714565b92915050565b5f5f5f5f5f60a08688031215611ed657611ed5611703565b5b5f611ee388828901611e62565b9550506020611ef488828901611e95565b9450506040611f0588828901611ea9565b9350506060611f1688828901611ea9565b9250506080611f2788828901611e62565b9150509295509295909350565b7f4e487b71000000000000000000000000000000000000000000000000000000005f52601160045260245ffd5b5f611f6b8261170b565b9150611f768361170b565b9250828202611f848161170b565b91508282048414831517611f9b57611f9a611f34565b5b5092915050565b7f4e487b71000000000000000000000000000000000000000000000000000000005f52601260045260245ffd5b5f611fd98261170b565b9150611fe48361170b565b925082611ff457611ff3611fa2565b5b828204905092915050565b5f81905092915050565b50565b5f6120175f83611fff565b915061202282612009565b5f82019050919050565b5f6120368261200c565b9150819050919050565b5f6060820190506120535f830186611b75565b6120606020830185611b75565b61206d6040830184611b75565b949350505050565b7f4e487b71000000000000000000000000000000000000000000000000000000005f52602260045260245ffd5b5f60028204905060018216806120b957607f821691505b6020821081036120cc576120cb612075565b5b50919050565b5f819050815f5260205f209050919050565b5f6020601f8301049050919050565b5f82821b905092915050565b5f6008830261212e7fffffffffffffffffffffffffffffffffffffffffffffffffffffffffffffffff826120f3565b61213886836120f3565b95508019841693508086168417925050509392505050565b5f819050919050565b5f61217361216e6121698461170b565b612150565b61170b565b9050919050565b5f819050919050565b61218c83612159565b6121a06121988261217a565b8484546120ff565b825550505050565b5f5f905090565b6121b76121a8565b6121c2818484612183565b505050565b5b818110156121e5576121da5f826121af565b6001810190506121c8565b5050565b601f82111561222a576121fb816120d2565b612204846120e4565b81016020851015612213578190505b61222761221f856120e4565b8301826121c7565b50505b505050565b5f82821c905092915050565b5f61224a5f198460080261222f565b1980831691505092915050565b5f612262838361223b565b9150826002028217905092915050565b61227b82611abb565b67ffffffffffffffff81111561229457612293611917565b5b61229e82546120a2565b6122a98282856121e9565b5f60209050601f8311600181146122da575f84156122c8578287015190505b6122d28582612257565b865550612339565b601f1984166122e8866120d2565b5f5b8281101561230f578489015182556001820191506020850194506020810190506122ea565b8683101561232c5784890151612328601f89168261223b565b8355505b6001600288020188555050505b505050505050565b5f819050919050565b5f67ffffffffffffffff82169050919050565b5f61237761237261236d84612341565b612150565b61234a565b9050919050565b6123878161235d565b82525050565b5f6020820190506123a05f83018461237e565b92915050565b7f4549503731323a20556e696e697469616c697a656400000000000000000000005f82015250565b5f6123da601583611ac5565b91506123e5826123a6565b602082019050919050565b5f6020820190508181035f830152612407816123ce565b9050919050565b5f6020820190506124215f830184611b75565b92915050565b5f60808201905061243a5f830187611b8d565b61244760208301866118db565b6124546040830185611b75565b6124616060830184611b75565b95945050505050565b7f4e487b71000000000000000000000000000000000000000000000000000000005f52602160045260245ffd5b5f60ff82169050919050565b6124ac81612497565b82525050565b5f6080820190506124c55f830187611b8d565b6124d260208301866124a3565b6124df6040830185611b8d565b6124ec6060830184611b8d565b95945050505050565b5f60a0820190506125085f830188611b8d565b6125156020830187611b8d565b6125226040830186611b8d565b61252f6060830185611b75565b61253c60808301846118db565b969550505050505056fea26469706673582212205fc59384a0daa3705053bb73862f0b4f7187f4d65fcfffb434cb4536b54566f264736f6c634300081c0033",
			"opcodes": "PUSH1 0x80 PUSH1 0x40 MSTORE CALLVALUE DUP1 ISZERO PUSH1 0xE JUMPI PUSH0 PUSH0 REVERT JUMPDEST POP PUSH1 0x1 PUSH0 DUP2 SWAP1 SSTORE POP PUSH2 0x257C DUP1 PUSH2 0x23 PUSH0 CODECOPY PUSH0 RETURN INVALID PUSH1 0x80 PUSH1 0x40 MSTORE PUSH1 0x4 CALLDATASIZE LT PUSH2 0xA6 JUMPI PUSH0 CALLDATALOAD PUSH1 0xE0 SHR DUP1 PUSH4 0x741BEF1A GT PUSH2 0x63 JUMPI DUP1 PUSH4 0x741BEF1A EQ PUSH2 0x1B4 JUMPI DUP1 PUSH4 0x84B0196E EQ PUSH2 0x1DE JUMPI DUP1 PUSH4 0x8AA6513C EQ PUSH2 0x20E JUMPI DUP1 PUSH4 0xB22A6D47 EQ PUSH2 0x238 JUMPI DUP1 PUSH4 0xB60D4288 EQ PUSH2 0x260 JUMPI DUP1 PUSH4 0xEC0E642F EQ PUSH2 0x26A JUMPI PUSH2 0xA6 JUMP JUMPDEST DUP1 PUSH4 0x51433042 EQ PUSH2 0xAA JUMPI DUP1 PUSH4 0x562BEBA8 EQ PUSH2 0xD2 JUMPI DUP1 PUSH4 0x5AF82ABF EQ PUSH2 0x10E JUMPI DUP1 PUSH4 0x65E8E4F4 EQ PUSH2 0x138 JUMPI DUP1 PUSH4 0x6FEC9219 EQ PUSH2 0x160 JUMPI DUP1 PUSH4 0x71B727D5 EQ PUSH2 0x18A JUMPI JUMPDEST PUSH0 PUSH0 REVERT JUMPDEST CALLVALUE DUP1 ISZERO PUSH2 0xB5 JUMPI PUSH0 PUSH0 REVERT JUMPDEST POP PUSH2 0xD0 PUSH1 0x4 DUP1 CALLDATASIZE SUB DUP2 ADD SWAP1 PUSH2 0xCB SWAP2 SWAP1 PUSH2 0x179F JUMP JUMPDEST PUSH2 0x2A6 JUMP JUMPDEST STOP JUMPDEST CALLVALUE DUP1 ISZERO PUSH2 0xDD JUMPI PUSH0 PUSH0 REVERT JUMPDEST POP PUSH2 0xF8 PUSH1 0x4 DUP1 CALLDATASIZE SUB DUP2 ADD SWAP1 PUSH2 0xF3 SWAP2 SWAP1 PUSH2 0x186A JUMP JUMPDEST PUSH2 0x66B JUMP JUMPDEST PUSH1 0x40 MLOAD PUSH2 0x105 SWAP2 SWAP1 PUSH2 0x18C2 JUMP JUMPDEST PUSH1 0x40 MLOAD DUP1 SWAP2 SUB SWAP1 RETURN JUMPDEST CALLVALUE DUP1 ISZERO PUSH2 0x119 JUMPI PUSH0 PUSH0 REVERT JUMPDEST POP PUSH2 0x122 PUSH2 0x695 JUMP JUMPDEST PUSH1 0x40 MLOAD PUSH2 0x12F SWAP2 SWAP1 PUSH2 0x18EA JUMP JUMPDEST PUSH1 0x40 MLOAD DUP1 SWAP2 SUB SWAP1 RETURN JUMPDEST CALLVALUE DUP1 ISZERO PUSH2 0x143 JUMPI PUSH0 PUSH0 REVERT JUMPDEST POP PUSH2 0x15E PUSH1 0x4 DUP1 CALLDATASIZE SUB DUP2 ADD SWAP1 PUSH2 0x159 SWAP2 SWAP1 PUSH2 0x1A3B JUMP JUMPDEST PUSH2 0x6BA JUMP JUMPDEST STOP JUMPDEST CALLVALUE DUP1 ISZERO PUSH2 0x16B JUMPI PUSH0 PUSH0 REVERT JUMPDEST POP PUSH2 0x174 PUSH2 0x979 JUMP JUMPDEST PUSH1 0x40 MLOAD PUSH2 0x181 SWAP2 SWAP1 PUSH2 0x1B1B JUMP JUMPDEST PUSH1 0x40 MLOAD DUP1 SWAP2 SUB SWAP1 RETURN JUMPDEST CALLVALUE DUP1 ISZERO PUSH2 0x195 JUMPI PUSH0 PUSH0 REVERT JUMPDEST POP PUSH2 0x19E PUSH2 0xA05 JUMP JUMPDEST PUSH1 0x40 MLOAD PUSH2 0x1AB SWAP2 SWAP1 PUSH2 0x18EA JUMP JUMPDEST PUSH1 0x40 MLOAD DUP1 SWAP2 SUB SWAP1 RETURN JUMPDEST CALLVALUE DUP1 ISZERO PUSH2 0x1BF JUMPI PUSH0 PUSH0 REVERT JUMPDEST POP PUSH2 0x1C8 PUSH2 0xA2A JUMP JUMPDEST PUSH1 0x40 MLOAD PUSH2 0x1D5 SWAP2 SWAP1 PUSH2 0x18EA JUMP JUMPDEST PUSH1 0x40 MLOAD DUP1 SWAP2 SUB SWAP1 RETURN JUMPDEST CALLVALUE DUP1 ISZERO PUSH2 0x1E9 JUMPI PUSH0 PUSH0 REVERT JUMPDEST POP PUSH2 0x1F2 PUSH2 0xA4F JUMP JUMPDEST PUSH1 0x40 MLOAD PUSH2 0x205 SWAP8 SWAP7 SWAP6 SWAP5 SWAP4 SWAP3 SWAP2 SWAP1 PUSH2 0x1C53 JUMP JUMPDEST PUSH1 0x40 MLOAD DUP1 SWAP2 SUB SWAP1 RETURN JUMPDEST CALLVALUE DUP1 ISZERO PUSH2 0x219 JUMPI PUSH0 PUSH0 REVERT JUMPDEST POP PUSH2 0x222 PUSH2 0xB58 JUMP JUMPDEST PUSH1 0x40 MLOAD PUSH2 0x22F SWAP2 SWAP1 PUSH2 0x1CD5 JUMP JUMPDEST PUSH1 0x40 MLOAD DUP1 SWAP2 SUB SWAP1 RETURN JUMPDEST CALLVALUE DUP1 ISZERO PUSH2 0x243 JUMPI PUSH0 PUSH0 REVERT JUMPDEST POP PUSH2 0x25E PUSH1 0x4 DUP1 CALLDATASIZE SUB DUP2 ADD SWAP1 PUSH2 0x259 SWAP2 SWAP1 PUSH2 0x1CEE JUMP JUMPDEST PUSH2 0xB7C JUMP JUMPDEST STOP JUMPDEST PUSH2 0x268 PUSH2 0xD7F JUMP JUMPDEST STOP JUMPDEST CALLVALUE DUP1 ISZERO PUSH2 0x275 JUMPI PUSH0 PUSH0 REVERT JUMPDEST POP PUSH2 0x290 PUSH1 0x4 DUP1 CALLDATASIZE SUB DUP2 ADD SWAP1 PUSH2 0x28B SWAP2 SWAP1 PUSH2 0x1DB7 JUMP JUMPDEST PUSH2 0xE8E JUMP JUMPDEST PUSH1 0x40 MLOAD PUSH2 0x29D SWAP2 SWAP1 PUSH2 0x18C2 JUMP JUMPDEST PUSH1 0x40 MLOAD DUP1 SWAP2 SUB SWAP1 RETURN JUMPDEST PUSH2 0x2AE PUSH2 0xF6B JUMP JUMPDEST PUSH1 0x5 PUSH0 CALLER PUSH20 0xFFFFFFFFFFFFFFFFFFFFFFFFFFFFFFFFFFFFFFFF AND PUSH20 0xFFFFFFFFFFFFFFFFFFFFFFFFFFFFFFFFFFFFFFFF AND DUP2 MSTORE PUSH1 0x20 ADD SWAP1 DUP2 MSTORE PUSH1 0x20 ADD PUSH0 KECCAK256 PUSH0 DUP6 DUP2 MSTORE PUSH1 0x20 ADD SWAP1 DUP2 MSTORE PUSH1 0x20 ADD PUSH0 KECCAK256 PUSH0 SWAP1 SLOAD SWAP1 PUSH2 0x100 EXP SWAP1 DIV PUSH1 0xFF AND ISZERO PUSH2 0x33E JUMPI PUSH1 0x40 MLOAD PUSH32 0x646CF55800000000000000000000000000000000000000000000000000000000 DUP2 MSTORE PUSH1 0x4 ADD PUSH1 0x40 MLOAD DUP1 SWAP2 SUB SWAP1 REVERT JUMPDEST PUSH0 PUSH2 0x38E CALLER DUP7 DUP7 DUP7 DUP7 DUP1 DUP1 PUSH1 0x1F ADD PUSH1 0x20 DUP1 SWAP2 DIV MUL PUSH1 0x20 ADD PUSH1 0x40 MLOAD SWAP1 DUP2 ADD PUSH1 0x40 MSTORE DUP1 SWAP4 SWAP3 SWAP2 SWAP1 DUP2 DUP2 MSTORE PUSH1 0x20 ADD DUP4 DUP4 DUP1 DUP3 DUP5 CALLDATACOPY PUSH0 DUP2 DUP5 ADD MSTORE PUSH1 0x1F NOT PUSH1 0x1F DUP3 ADD AND SWAP1 POP DUP1 DUP4 ADD SWAP3 POP POP POP POP POP POP POP PUSH2 0xE8E JUMP JUMPDEST SWAP1 POP DUP1 PUSH2 0x3C7 JUMPI PUSH1 0x40 MLOAD PUSH32 0x8BAA579F00000000000000000000000000000000000000000000000000000000 DUP2 MSTORE PUSH1 0x4 ADD PUSH1 0x40 MLOAD DUP1 SWAP2 SUB SWAP1 REVERT JUMPDEST PUSH0 PUSH1 0x3 PUSH0 SWAP1 SLOAD SWAP1 PUSH2 0x100 EXP SWAP1 DIV PUSH20 0xFFFFFFFFFFFFFFFFFFFFFFFFFFFFFFFFFFFFFFFF AND SWAP1 POP PUSH0 DUP2 PUSH20 0xFFFFFFFFFFFFFFFFFFFFFFFFFFFFFFFFFFFFFFFF AND PUSH4 0xFEAF968C PUSH1 0x40 MLOAD DUP2 PUSH4 0xFFFFFFFF AND PUSH1 0xE0 SHL DUP2 MSTORE PUSH1 0x4 ADD PUSH1 0xA0 PUSH1 0x40 MLOAD DUP1 DUP4 SUB DUP2 DUP7 GAS STATICCALL ISZERO DUP1 ISZERO PUSH2 0x436 JUMPI RETURNDATASIZE PUSH0 PUSH0 RETURNDATACOPY RETURNDATASIZE PUSH0 REVERT JUMPDEST POP POP POP POP PUSH1 0x40 MLOAD RETURNDATASIZE PUSH1 0x1F NOT PUSH1 0x1F DUP3 ADD AND DUP3 ADD DUP1 PUSH1 0x40 MSTORE POP DUP2 ADD SWAP1 PUSH2 0x45A SWAP2 SWAP1 PUSH2 0x1EBD JUMP JUMPDEST POP POP POP SWAP2 POP POP PUSH0 DUP2 SGT PUSH2 0x498 JUMPI PUSH1 0x40 MLOAD PUSH31 0xBFC92100000000000000000000000000000000000000000000000000000000 DUP2 MSTORE PUSH1 0x4 ADD PUSH1 0x40 MLOAD DUP1 SWAP2 SUB SWAP1 REVERT JUMPDEST PUSH0 PUSH1 0x64 DUP3 PUSH2 0x4A6 SWAP2 SWAP1 PUSH2 0x1F61 JUMP JUMPDEST PUSH11 0x52B7D2DCC80CD2E4000000 DUP9 PUSH2 0x4BD SWAP2 SWAP1 PUSH2 0x1F61 JUMP JUMPDEST PUSH2 0x4C7 SWAP2 SWAP1 PUSH2 0x1FCF JUMP JUMPDEST SWAP1 POP DUP1 SELFBALANCE LT ISZERO PUSH2 0x503 JUMPI PUSH1 0x40 MLOAD PUSH32 0x583AA02600000000000000000000000000000000000000000000000000000000 DUP2 MSTORE PUSH1 0x4 ADD PUSH1 0x40 MLOAD DUP1 SWAP2 SUB SWAP1 REVERT JUMPDEST PUSH1 0x1 PUSH1 0x5 PUSH0 CALLER PUSH20 0xFFFFFFFFFFFFFFFFFFFFFFFFFFFFFFFFFFFFFFFF AND PUSH20 0xFFFFFFFFFFFFFFFFFFFFFFFFFFFFFFFFFFFFFFFF AND DUP2 MSTORE PUSH1 0x20 ADD SWAP1 DUP2 MSTORE PUSH1 0x20 ADD PUSH0 KECCAK256 PUSH0 DUP11 DUP2 MSTORE PUSH1 0x20 ADD SWAP1 DUP2 MSTORE PUSH1 0x20 ADD PUSH0 KECCAK256 PUSH0 PUSH2 0x100 EXP DUP2 SLOAD DUP2 PUSH1 0xFF MUL NOT AND SWAP1 DUP4 ISZERO ISZERO MUL OR SWAP1 SSTORE POP PUSH0 CALLER PUSH20 0xFFFFFFFFFFFFFFFFFFFFFFFFFFFFFFFFFFFFFFFF AND DUP3 PUSH1 0x40 MLOAD PUSH2 0x58C SWAP1 PUSH2 0x202C JUMP JUMPDEST PUSH0 PUSH1 0x40 MLOAD DUP1 DUP4 SUB DUP2 DUP6 DUP8 GAS CALL SWAP3 POP POP POP RETURNDATASIZE DUP1 PUSH0 DUP2 EQ PUSH2 0x5C6 JUMPI PUSH1 0x40 MLOAD SWAP2 POP PUSH1 0x1F NOT PUSH1 0x3F RETURNDATASIZE ADD AND DUP3 ADD PUSH1 0x40 MSTORE RETURNDATASIZE DUP3 MSTORE RETURNDATASIZE PUSH0 PUSH1 0x20 DUP5 ADD RETURNDATACOPY PUSH2 0x5CB JUMP JUMPDEST PUSH1 0x60 SWAP2 POP JUMPDEST POP POP SWAP1 POP DUP1 PUSH2 0x606 JUMPI PUSH1 0x40 MLOAD PUSH32 0x90B8EC1800000000000000000000000000000000000000000000000000000000 DUP2 MSTORE PUSH1 0x4 ADD PUSH1 0x40 MLOAD DUP1 SWAP2 SUB SWAP1 REVERT JUMPDEST CALLER PUSH20 0xFFFFFFFFFFFFFFFFFFFFFFFFFFFFFFFFFFFFFFFF AND PUSH32 0xBB4E6BBE07780CA1BC5DF4D202B1E8B160C62382AC5430FA5EFCB5C579096A42 DUP11 DUP11 DUP6 PUSH1 0x40 MLOAD PUSH2 0x650 SWAP4 SWAP3 SWAP2 SWAP1 PUSH2 0x2040 JUMP JUMPDEST PUSH1 0x40 MLOAD DUP1 SWAP2 SUB SWAP1 LOG2 POP POP POP POP POP PUSH2 0x665 PUSH2 0xFAF JUMP JUMPDEST POP POP POP POP JUMP JUMPDEST PUSH1 0x5 PUSH1 0x20 MSTORE DUP2 PUSH0 MSTORE PUSH1 0x40 PUSH0 KECCAK256 PUSH1 0x20 MSTORE DUP1 PUSH0 MSTORE PUSH1 0x40 PUSH0 KECCAK256 PUSH0 SWAP2 POP SWAP2 POP SWAP1 SLOAD SWAP1 PUSH2 0x100 EXP SWAP1 DIV PUSH1 0xFF AND DUP2 JUMP JUMPDEST PUSH1 0x2 PUSH0 SWAP1 SLOAD SWAP1 PUSH2 0x100 EXP SWAP1 DIV PUSH20 0xFFFFFFFFFFFFFFFFFFFFFFFFFFFFFFFFFFFFFFFF AND DUP2 JUMP JUMPDEST PUSH0 PUSH2 0x6C3 PUSH2 0xFB8 JUMP JUMPDEST SWAP1 POP PUSH0 DUP2 PUSH0 ADD PUSH1 0x8 SWAP1 SLOAD SWAP1 PUSH2 0x100 EXP SWAP1 DIV PUSH1 0xFF AND ISZERO SWAP1 POP PUSH0 DUP3 PUSH0 ADD PUSH0 SWAP1 SLOAD SWAP1 PUSH2 0x100 EXP SWAP1 DIV PUSH8 0xFFFFFFFFFFFFFFFF AND SWAP1 POP PUSH0 PUSH0 DUP3 PUSH8 0xFFFFFFFFFFFFFFFF AND EQ DUP1 ISZERO PUSH2 0x70B JUMPI POP DUP3 JUMPDEST SWAP1 POP PUSH0 PUSH1 0x1 DUP4 PUSH8 0xFFFFFFFFFFFFFFFF AND EQ DUP1 ISZERO PUSH2 0x73E JUMPI POP PUSH0 ADDRESS PUSH20 0xFFFFFFFFFFFFFFFFFFFFFFFFFFFFFFFFFFFFFFFF AND EXTCODESIZE EQ JUMPDEST SWAP1 POP DUP2 ISZERO DUP1 ISZERO PUSH2 0x74C JUMPI POP DUP1 ISZERO JUMPDEST ISZERO PUSH2 0x783 JUMPI PUSH1 0x40 MLOAD PUSH32 0xF92EE8A900000000000000000000000000000000000000000000000000000000 DUP2 MSTORE PUSH1 0x4 ADD PUSH1 0x40 MLOAD DUP1 SWAP2 SUB SWAP1 REVERT JUMPDEST PUSH1 0x1 DUP6 PUSH0 ADD PUSH0 PUSH2 0x100 EXP DUP2 SLOAD DUP2 PUSH8 0xFFFFFFFFFFFFFFFF MUL NOT AND SWAP1 DUP4 PUSH8 0xFFFFFFFFFFFFFFFF AND MUL OR SWAP1 SSTORE POP DUP4 ISZERO PUSH2 0x7D0 JUMPI PUSH1 0x1 DUP6 PUSH0 ADD PUSH1 0x8 PUSH2 0x100 EXP DUP2 SLOAD DUP2 PUSH1 0xFF MUL NOT AND SWAP1 DUP4 ISZERO ISZERO MUL OR SWAP1 SSTORE POP JUMPDEST PUSH2 0x844 PUSH1 0x40 MLOAD DUP1 PUSH1 0x40 ADD PUSH1 0x40 MSTORE DUP1 PUSH1 0x9 DUP2 MSTORE PUSH1 0x20 ADD PUSH32 0x50617973616C6172790000000000000000000000000000000000000000000000 DUP2 MSTORE POP PUSH1 0x40 MLOAD DUP1 PUSH1 0x40 ADD PUSH1 0x40 MSTORE DUP1 PUSH1 0x1 DUP2 MSTORE PUSH1 0x20 ADD PUSH32 0x3100000000000000000000000000000000000000000000000000000000000000 DUP2 MSTORE POP PUSH2 0xFCB JUMP JUMPDEST DUP9 PUSH1 0x1 PUSH0 PUSH2 0x100 EXP DUP2 SLOAD DUP2 PUSH20 0xFFFFFFFFFFFFFFFFFFFFFFFFFFFFFFFFFFFFFFFF MUL NOT AND SWAP1 DUP4 PUSH20 0xFFFFFFFFFFFFFFFFFFFFFFFFFFFFFFFFFFFFFFFF AND MUL OR SWAP1 SSTORE POP DUP8 PUSH1 0x2 PUSH0 PUSH2 0x100 EXP DUP2 SLOAD DUP2 PUSH20 0xFFFFFFFFFFFFFFFFFFFFFFFFFFFFFFFFFFFFFFFF MUL NOT AND SWAP1 DUP4 PUSH20 0xFFFFFFFFFFFFFFFFFFFFFFFFFFFFFFFFFFFFFFFF AND MUL OR SWAP1 SSTORE POP DUP7 PUSH1 0x3 PUSH0 PUSH2 0x100 EXP DUP2 SLOAD DUP2 PUSH20 0xFFFFFFFFFFFFFFFFFFFFFFFFFFFFFFFFFFFFFFFF MUL NOT AND SWAP1 DUP4 PUSH20 0xFFFFFFFFFFFFFFFFFFFFFFFFFFFFFFFFFFFFFFFF AND MUL OR SWAP1 SSTORE POP DUP6 PUSH1 0x4 SWAP1 DUP2 PUSH2 0x913 SWAP2 SWAP1 PUSH2 0x2272 JUMP JUMPDEST POP DUP4 ISZERO PUSH2 0x96E JUMPI PUSH0 DUP6 PUSH0 ADD PUSH1 0x8 PUSH2 0x100 EXP DUP2 SLOAD DUP2 PUSH1 0xFF MUL NOT AND SWAP1 DUP4 ISZERO ISZERO MUL OR SWAP1 SSTORE POP PUSH32 0xC7F505B2F371AE2175EE4913F4499E1F2633A7B5936321EED1CDAEB6115181D2 PUSH1 0x1 PUSH1 0x40 MLOAD PUSH2 0x965 SWAP2 SWAP1 PUSH2 0x238D JUMP JUMPDEST PUSH1 0x40 MLOAD DUP1 SWAP2 SUB SWAP1 LOG1 JUMPDEST POP POP POP POP POP POP POP POP POP JUMP JUMPDEST PUSH1 0x4 DUP1 SLOAD PUSH2 0x986 SWAP1 PUSH2 0x20A2 JUMP JUMPDEST DUP1 PUSH1 0x1F ADD PUSH1 0x20 DUP1 SWAP2 DIV MUL PUSH1 0x20 ADD PUSH1 0x40 MLOAD SWAP1 DUP2 ADD PUSH1 0x40 MSTORE DUP1 SWAP3 SWAP2 SWAP1 DUP2 DUP2 MSTORE PUSH1 0x20 ADD DUP3 DUP1 SLOAD PUSH2 0x9B2 SWAP1 PUSH2 0x20A2 JUMP JUMPDEST DUP1 ISZERO PUSH2 0x9FD JUMPI DUP1 PUSH1 0x1F LT PUSH2 0x9D4 JUMPI PUSH2 0x100 DUP1 DUP4 SLOAD DIV MUL DUP4 MSTORE SWAP2 PUSH1 0x20 ADD SWAP2 PUSH2 0x9FD JUMP JUMPDEST DUP3 ADD SWAP2 SWAP1 PUSH0 MSTORE PUSH1 0x20 PUSH0 KECCAK256 SWAP1 JUMPDEST DUP2 SLOAD DUP2 MSTORE SWAP1 PUSH1 0x1 ADD SWAP1 PUSH1 0x20 ADD DUP1 DUP4 GT PUSH2 0x9E0 JUMPI DUP3 SWAP1 SUB PUSH1 0x1F AND DUP3 ADD SWAP2 JUMPDEST POP POP POP POP POP DUP2 JUMP JUMPDEST PUSH1 0x1 PUSH0 SWAP1 SLOAD SWAP1 PUSH2 0x100 EXP SWAP1 DIV PUSH20 0xFFFFFFFFFFFFFFFFFFFFFFFFFFFFFFFFFFFFFFFF AND DUP2 JUMP JUMPDEST PUSH1 0x3 PUSH0 SWAP1 SLOAD SWAP1 PUSH2 0x100 EXP SWAP1 DIV PUSH20 0xFFFFFFFFFFFFFFFFFFFFFFFFFFFFFFFFFFFFFFFF AND DUP2 JUMP JUMPDEST PUSH0 PUSH1 0x60 DUP1 PUSH0 PUSH0 PUSH0 PUSH1 0x60 PUSH0 PUSH2 0xA61 PUSH2 0xFE1 JUMP JUMPDEST SWAP1 POP PUSH0 PUSH0 SHL DUP2 PUSH0 ADD SLOAD EQ DUP1 ISZERO PUSH2 0xA7C JUMPI POP PUSH0 PUSH0 SHL DUP2 PUSH1 0x1 ADD SLOAD EQ JUMPDEST PUSH2 0xABB JUMPI PUSH1 0x40 MLOAD PUSH32 0x8C379A000000000000000000000000000000000000000000000000000000000 DUP2 MSTORE PUSH1 0x4 ADD PUSH2 0xAB2 SWAP1 PUSH2 0x23F0 JUMP JUMPDEST PUSH1 0x40 MLOAD DUP1 SWAP2 SUB SWAP1 REVERT JUMPDEST PUSH2 0xAC3 PUSH2 0x1008 JUMP JUMPDEST PUSH2 0xACB PUSH2 0x10A6 JUMP JUMPDEST CHAINID ADDRESS PUSH0 PUSH0 SHL PUSH0 PUSH8 0xFFFFFFFFFFFFFFFF DUP2 GT ISZERO PUSH2 0xAEA JUMPI PUSH2 0xAE9 PUSH2 0x1917 JUMP JUMPDEST JUMPDEST PUSH1 0x40 MLOAD SWAP1 DUP1 DUP3 MSTORE DUP1 PUSH1 0x20 MUL PUSH1 0x20 ADD DUP3 ADD PUSH1 0x40 MSTORE DUP1 ISZERO PUSH2 0xB18 JUMPI DUP2 PUSH1 0x20 ADD PUSH1 0x20 DUP3 MUL DUP1 CALLDATASIZE DUP4 CALLDATACOPY DUP1 DUP3 ADD SWAP2 POP POP SWAP1 POP JUMPDEST POP PUSH32 0xF00000000000000000000000000000000000000000000000000000000000000 SWAP6 SWAP5 SWAP4 SWAP3 SWAP2 SWAP1 SWAP8 POP SWAP8 POP SWAP8 POP SWAP8 POP SWAP8 POP SWAP8 POP SWAP8 POP POP SWAP1 SWAP2 SWAP3 SWAP4 SWAP5 SWAP6 SWAP7 JUMP JUMPDEST PUSH32 0xEFB3BCF6C37B04A2EA08E05BC27B3D72182415A34DD68183573C958F1D4B6C05 DUP2 JUMP JUMPDEST PUSH2 0xB84 PUSH2 0xF6B JUMP JUMPDEST PUSH1 0x2 PUSH0 SWAP1 SLOAD SWAP1 PUSH2 0x100 EXP SWAP1 DIV PUSH20 0xFFFFFFFFFFFFFFFFFFFFFFFFFFFFFFFFFFFFFFFF AND PUSH20 0xFFFFFFFFFFFFFFFFFFFFFFFFFFFFFFFFFFFFFFFF AND CALLER PUSH20 0xFFFFFFFFFFFFFFFFFFFFFFFFFFFFFFFFFFFFFFFF AND EQ PUSH2 0xC0A JUMPI PUSH1 0x40 MLOAD PUSH32 0x32F34C2500000000000000000000000000000000000000000000000000000000 DUP2 MSTORE PUSH1 0x4 ADD PUSH1 0x40 MLOAD DUP1 SWAP2 SUB SWAP1 REVERT JUMPDEST DUP1 SELFBALANCE LT ISZERO PUSH2 0xC44 JUMPI PUSH1 0x40 MLOAD PUSH32 0xF4D678B800000000000000000000000000000000000000000000000000000000 DUP2 MSTORE PUSH1 0x4 ADD PUSH1 0x40 MLOAD DUP1 SWAP2 SUB SWAP1 REVERT JUMPDEST PUSH0 PUSH1 0x2 PUSH0 SWAP1 SLOAD SWAP1 PUSH2 0x100 EXP SWAP1 DIV PUSH20 0xFFFFFFFFFFFFFFFFFFFFFFFFFFFFFFFFFFFFFFFF AND PUSH20 0xFFFFFFFFFFFFFFFFFFFFFFFFFFFFFFFFFFFFFFFF AND DUP3 PUSH1 0x40 MLOAD PUSH2 0xC8A SWAP1 PUSH2 0x202C JUMP JUMPDEST PUSH0 PUSH1 0x40 MLOAD DUP1 DUP4 SUB DUP2 DUP6 DUP8 GAS CALL SWAP3 POP POP POP RETURNDATASIZE DUP1 PUSH0 DUP2 EQ PUSH2 0xCC4 JUMPI PUSH1 0x40 MLOAD SWAP2 POP PUSH1 0x1F NOT PUSH1 0x3F RETURNDATASIZE ADD AND DUP3 ADD PUSH1 0x40 MSTORE RETURNDATASIZE DUP3 MSTORE RETURNDATASIZE PUSH0 PUSH1 0x20 DUP5 ADD RETURNDATACOPY PUSH2 0xCC9 JUMP JUMPDEST PUSH1 0x60 SWAP2 POP JUMPDEST POP POP SWAP1 POP DUP1 PUSH2 0xD04 JUMPI PUSH1 0x40 MLOAD PUSH32 0x750B219C00000000000000000000000000000000000000000000000000000000 DUP2 MSTORE PUSH1 0x4 ADD PUSH1 0x40 MLOAD DUP1 SWAP2 SUB SWAP1 REVERT JUMPDEST PUSH1 0x2 PUSH0 SWAP1 SLOAD SWAP1 PUSH2 0x100 EXP SWAP1 DIV PUSH20 0xFFFFFFFFFFFFFFFFFFFFFFFFFFFFFFFFFFFFFFFF AND PUSH20 0xFFFFFFFFFFFFFFFFFFFFFFFFFFFFFFFFFFFFFFFF AND PUSH32 0xC415AE7271CC5D858B5F909291D642F934C072757E0E3A6B8097416F5C3170CB DUP4 PUSH1 0x40 MLOAD PUSH2 0xD6B SWAP2 SWAP1 PUSH2 0x240E JUMP JUMPDEST PUSH1 0x40 MLOAD DUP1 SWAP2 SUB SWAP1 LOG2 POP PUSH2 0xD7C PUSH2 0xFAF JUMP JUMPDEST POP JUMP JUMPDEST PUSH1 0x2 PUSH0 SWAP1 SLOAD SWAP1 PUSH2 0x100 EXP SWAP1 DIV PUSH20 0xFFFFFFFFFFFFFFFFFFFFFFFFFFFFFFFFFFFFFFFF AND PUSH20 0xFFFFFFFFFFFFFFFFFFFFFFFFFFFFFFFFFFFFFFFF AND CALLER PUSH20 0xFFFFFFFFFFFFFFFFFFFFFFFFFFFFFFFFFFFFFFFF AND EQ PUSH2 0xE05 JUMPI PUSH1 0x40 MLOAD PUSH32 0xD3AEDF2A00000000000000000000000000000000000000000000000000000000 DUP2 MSTORE PUSH1 0x4 ADD PUSH1 0x40 MLOAD DUP1 SWAP2 SUB SWAP1 REVERT JUMPDEST PUSH0 CALLVALUE GT PUSH2 0xE3E JUMPI PUSH1 0x40 MLOAD PUSH32 0x583AA02600000000000000000000000000000000000000000000000000000000 DUP2 MSTORE PUSH1 0x4 ADD PUSH1 0x40 MLOAD DUP1 SWAP2 SUB SWAP1 REVERT JUMPDEST CALLER PUSH20 0xFFFFFFFFFFFFFFFFFFFFFFFFFFFFFFFFFFFFFFFF AND PUSH32 0x5AF8184BEF8E4B45EB9F6ED7734D04DA38CED226495548F46E0C8FF8D7D9A524 CALLVALUE PUSH1 0x40 MLOAD PUSH2 0xE84 SWAP2 SWAP1 PUSH2 0x240E JUMP JUMPDEST PUSH1 0x40 MLOAD DUP1 SWAP2 SUB SWAP1 LOG2 JUMP JUMPDEST PUSH0 PUSH0 PUSH2 0xE9B DUP7 DUP7 DUP7 PUSH2 0x1144 JUMP JUMPDEST SWAP1 POP PUSH0 PUSH2 0xEA8 DUP3 DUP6 PUSH2 0x11A3 JUMP JUMPDEST SWAP1 POP PUSH0 PUSH20 0xFFFFFFFFFFFFFFFFFFFFFFFFFFFFFFFFFFFFFFFF AND DUP2 PUSH20 0xFFFFFFFFFFFFFFFFFFFFFFFFFFFFFFFFFFFFFFFF AND SUB PUSH2 0xF0F JUMPI PUSH1 0x40 MLOAD PUSH32 0x8BAA579F00000000000000000000000000000000000000000000000000000000 DUP2 MSTORE PUSH1 0x4 ADD PUSH1 0x40 MLOAD DUP1 SWAP2 SUB SWAP1 REVERT JUMPDEST PUSH1 0x2 PUSH0 SWAP1 SLOAD SWAP1 PUSH2 0x100 EXP SWAP1 DIV PUSH20 0xFFFFFFFFFFFFFFFFFFFFFFFFFFFFFFFFFFFFFFFF AND PUSH20 0xFFFFFFFFFFFFFFFFFFFFFFFFFFFFFFFFFFFFFFFF AND DUP2 PUSH20 0xFFFFFFFFFFFFFFFFFFFFFFFFFFFFFFFFFFFFFFFF AND EQ SWAP3 POP POP POP SWAP5 SWAP4 POP POP POP POP JUMP JUMPDEST PUSH1 0x2 PUSH0 SLOAD SUB PUSH2 0xFA6 JUMPI PUSH1 0x40 MLOAD PUSH32 0x3EE5AEB500000000000000000000000000000000000000000000000000000000 DUP2 MSTORE PUSH1 0x4 ADD PUSH1 0x40 MLOAD DUP1 SWAP2 SUB SWAP1 REVERT JUMPDEST PUSH1 0x2 PUSH0 DUP2 SWAP1 SSTORE POP JUMP JUMPDEST PUSH1 0x1 PUSH0 DUP2 SWAP1 SSTORE POP JUMP JUMPDEST PUSH0 PUSH0 PUSH2 0xFC2 PUSH2 0x11CD JUMP JUMPDEST SWAP1 POP DUP1 SWAP2 POP POP SWAP1 JUMP JUMPDEST PUSH2 0xFD3 PUSH2 0x11F6 JUMP JUMPDEST PUSH2 0xFDD DUP3 DUP3 PUSH2 0x1236 JUMP JUMPDEST POP POP JUMP JUMPDEST PUSH0 PUSH32 0xA16A46D94261C7517CC8FF89F61C0CE93598E3C849801011DEE649A6A557D100 SWAP1 POP SWAP1 JUMP JUMPDEST PUSH1 0x60 PUSH0 PUSH2 0x1013 PUSH2 0xFE1 JUMP JUMPDEST SWAP1 POP DUP1 PUSH1 0x2 ADD DUP1 SLOAD PUSH2 0x1024 SWAP1 PUSH2 0x20A2 JUMP JUMPDEST DUP1 PUSH1 0x1F ADD PUSH1 0x20 DUP1 SWAP2 DIV MUL PUSH1 0x20 ADD PUSH1 0x40 MLOAD SWAP1 DUP2 ADD PUSH1 0x40 MSTORE DUP1 SWAP3 SWAP2 SWAP1 DUP2 DUP2 MSTORE PUSH1 0x20 ADD DUP3 DUP1 SLOAD PUSH2 0x1050 SWAP1 PUSH2 0x20A2 JUMP JUMPDEST DUP1 ISZERO PUSH2 0x109B JUMPI DUP1 PUSH1 0x1F LT PUSH2 0x1072 JUMPI PUSH2 0x100 DUP1 DUP4 SLOAD DIV MUL DUP4 MSTORE SWAP2 PUSH1 0x20 ADD SWAP2 PUSH2 0x109B JUMP JUMPDEST DUP3 ADD SWAP2 SWAP1 PUSH0 MSTORE PUSH1 0x20 PUSH0 KECCAK256 SWAP1 JUMPDEST DUP2 SLOAD DUP2 MSTORE SWAP1 PUSH1 0x1 ADD SWAP1 PUSH1 0x20 ADD DUP1 DUP4 GT PUSH2 0x107E JUMPI DUP3 SWAP1 SUB PUSH1 0x1F AND DUP3 ADD SWAP2 JUMPDEST POP POP POP POP POP SWAP2 POP POP SWAP1 JUMP JUMPDEST PUSH1 0x60 PUSH0 PUSH2 0x10B1 PUSH2 0xFE1 JUMP JUMPDEST SWAP1 POP DUP1 PUSH1 0x3 ADD DUP1 SLOAD PUSH2 0x10C2 SWAP1 PUSH2 0x20A2 JUMP JUMPDEST DUP1 PUSH1 0x1F ADD PUSH1 0x20 DUP1 SWAP2 DIV MUL PUSH1 0x20 ADD PUSH1 0x40 MLOAD SWAP1 DUP2 ADD PUSH1 0x40 MSTORE DUP1 SWAP3 SWAP2 SWAP1 DUP2 DUP2 MSTORE PUSH1 0x20 ADD DUP3 DUP1 SLOAD PUSH2 0x10EE SWAP1 PUSH2 0x20A2 JUMP JUMPDEST DUP1 ISZERO PUSH2 0x1139 JUMPI DUP1 PUSH1 0x1F LT PUSH2 0x1110 JUMPI PUSH2 0x100 DUP1 DUP4 SLOAD DIV MUL DUP4 MSTORE SWAP2 PUSH1 0x20 ADD SWAP2 PUSH2 0x1139 JUMP JUMPDEST DUP3 ADD SWAP2 SWAP1 PUSH0 MSTORE PUSH1 0x20 PUSH0 KECCAK256 SWAP1 JUMPDEST DUP2 SLOAD DUP2 MSTORE SWAP1 PUSH1 0x1 ADD SWAP1 PUSH1 0x20 ADD DUP1 DUP4 GT PUSH2 0x111C JUMPI DUP3 SWAP1 SUB PUSH1 0x1F AND DUP3 ADD SWAP2 JUMPDEST POP POP POP POP POP SWAP2 POP POP SWAP1 JUMP JUMPDEST PUSH0 PUSH2 0x119A PUSH32 0xEFB3BCF6C37B04A2EA08E05BC27B3D72182415A34DD68183573C958F1D4B6C05 DUP6 DUP6 DUP6 PUSH1 0x40 MLOAD PUSH1 0x20 ADD PUSH2 0x117F SWAP5 SWAP4 SWAP3 SWAP2 SWAP1 PUSH2 0x2427 JUMP JUMPDEST PUSH1 0x40 MLOAD PUSH1 0x20 DUP2 DUP4 SUB SUB DUP2 MSTORE SWAP1 PUSH1 0x40 MSTORE DUP1 MLOAD SWAP1 PUSH1 0x20 ADD KECCAK256 PUSH2 0x1287 JUMP JUMPDEST SWAP1 POP SWAP4 SWAP3 POP POP POP JUMP JUMPDEST PUSH0 PUSH0 PUSH0 PUSH0 PUSH2 0x11B1 DUP7 DUP7 PUSH2 0x12A0 JUMP JUMPDEST SWAP3 POP SWAP3 POP SWAP3 POP PUSH2 0x11C1 DUP3 DUP3 PUSH2 0x12F5 JUMP JUMPDEST DUP3 SWAP4 POP POP POP POP SWAP3 SWAP2 POP POP JUMP JUMPDEST PUSH0 PUSH32 0xF0C57E16840DF040F15088DC2F81FE391C3923BEC73E23A9662EFC9C229C6A00 PUSH0 SHL SWAP1 POP SWAP1 JUMP JUMPDEST PUSH2 0x11FE PUSH2 0x1457 JUMP JUMPDEST PUSH2 0x1234 JUMPI PUSH1 0x40 MLOAD PUSH32 0xD7E6BCF800000000000000000000000000000000000000000000000000000000 DUP2 MSTORE PUSH1 0x4 ADD PUSH1 0x40 MLOAD DUP1 SWAP2 SUB SWAP1 REVERT JUMPDEST JUMP JUMPDEST PUSH2 0x123E PUSH2 0x11F6 JUMP JUMPDEST PUSH0 PUSH2 0x1247 PUSH2 0xFE1 JUMP JUMPDEST SWAP1 POP DUP3 DUP2 PUSH1 0x2 ADD SWAP1 DUP2 PUSH2 0x125A SWAP2 SWAP1 PUSH2 0x2272 JUMP JUMPDEST POP DUP2 DUP2 PUSH1 0x3 ADD SWAP1 DUP2 PUSH2 0x126C SWAP2 SWAP1 PUSH2 0x2272 JUMP JUMPDEST POP PUSH0 PUSH0 SHL DUP2 PUSH0 ADD DUP2 SWAP1 SSTORE POP PUSH0 PUSH0 SHL DUP2 PUSH1 0x1 ADD DUP2 SWAP1 SSTORE POP POP POP POP JUMP JUMPDEST PUSH0 PUSH2 0x1299 PUSH2 0x1293 PUSH2 0x1475 JUMP JUMPDEST DUP4 PUSH2 0x1483 JUMP JUMPDEST SWAP1 POP SWAP2 SWAP1 POP JUMP JUMPDEST PUSH0 PUSH0 PUSH0 PUSH1 0x41 DUP5 MLOAD SUB PUSH2 0x12E0 JUMPI PUSH0 PUSH0 PUSH0 PUSH1 0x20 DUP8 ADD MLOAD SWAP3 POP PUSH1 0x40 DUP8 ADD MLOAD SWAP2 POP PUSH1 0x60 DUP8 ADD MLOAD PUSH0 BYTE SWAP1 POP PUSH2 0x12D2 DUP9 DUP3 DUP6 DUP6 PUSH2 0x14C3 JUMP JUMPDEST SWAP6 POP SWAP6 POP SWAP6 POP POP POP POP PUSH2 0x12EE JUMP JUMPDEST PUSH0 PUSH1 0x2 DUP6 MLOAD PUSH0 SHL SWAP3 POP SWAP3 POP SWAP3 POP JUMPDEST SWAP3 POP SWAP3 POP SWAP3 JUMP JUMPDEST PUSH0 PUSH1 0x3 DUP2 GT ISZERO PUSH2 0x1308 JUMPI PUSH2 0x1307 PUSH2 0x246A JUMP JUMPDEST JUMPDEST DUP3 PUSH1 0x3 DUP2 GT ISZERO PUSH2 0x131B JUMPI PUSH2 0x131A PUSH2 0x246A JUMP JUMPDEST JUMPDEST SUB ISZERO PUSH2 0x1453 JUMPI PUSH1 0x1 PUSH1 0x3 DUP2 GT ISZERO PUSH2 0x1335 JUMPI PUSH2 0x1334 PUSH2 0x246A JUMP JUMPDEST JUMPDEST DUP3 PUSH1 0x3 DUP2 GT ISZERO PUSH2 0x1348 JUMPI PUSH2 0x1347 PUSH2 0x246A JUMP JUMPDEST JUMPDEST SUB PUSH2 0x137F JUMPI PUSH1 0x40 MLOAD PUSH32 0xF645EEDF00000000000000000000000000000000000000000000000000000000 DUP2 MSTORE PUSH1 0x4 ADD PUSH1 0x40 MLOAD DUP1 SWAP2 SUB SWAP1 REVERT JUMPDEST PUSH1 0x2 PUSH1 0x3 DUP2 GT ISZERO PUSH2 0x1393 JUMPI PUSH2 0x1392 PUSH2 0x246A JUMP JUMPDEST JUMPDEST DUP3 PUSH1 0x3 DUP2 GT ISZERO PUSH2 0x13A6 JUMPI PUSH2 0x13A5 PUSH2 0x246A JUMP JUMPDEST JUMPDEST SUB PUSH2 0x13EA JUMPI DUP1 PUSH0 SHR PUSH1 0x40 MLOAD PUSH32 0xFCE698F700000000000000000000000000000000000000000000000000000000 DUP2 MSTORE PUSH1 0x4 ADD PUSH2 0x13E1 SWAP2 SWAP1 PUSH2 0x240E JUMP JUMPDEST PUSH1 0x40 MLOAD DUP1 SWAP2 SUB SWAP1 REVERT JUMPDEST PUSH1 0x3 DUP1 DUP2 GT ISZERO PUSH2 0x13FD JUMPI PUSH2 0x13FC PUSH2 0x246A JUMP JUMPDEST JUMPDEST DUP3 PUSH1 0x3 DUP2 GT ISZERO PUSH2 0x1410 JUMPI PUSH2 0x140F PUSH2 0x246A JUMP JUMPDEST JUMPDEST SUB PUSH2 0x1452 JUMPI DUP1 PUSH1 0x40 MLOAD PUSH32 0xD78BCE0C00000000000000000000000000000000000000000000000000000000 DUP2 MSTORE PUSH1 0x4 ADD PUSH2 0x1449 SWAP2 SWAP1 PUSH2 0x1CD5 JUMP JUMPDEST PUSH1 0x40 MLOAD DUP1 SWAP2 SUB SWAP1 REVERT JUMPDEST JUMPDEST POP POP JUMP JUMPDEST PUSH0 PUSH2 0x1460 PUSH2 0xFB8 JUMP JUMPDEST PUSH0 ADD PUSH1 0x8 SWAP1 SLOAD SWAP1 PUSH2 0x100 EXP SWAP1 DIV PUSH1 0xFF AND SWAP1 POP SWAP1 JUMP JUMPDEST PUSH0 PUSH2 0x147E PUSH2 0x15AA JUMP JUMPDEST SWAP1 POP SWAP1 JUMP JUMPDEST PUSH0 PUSH1 0x40 MLOAD PUSH32 0x1901000000000000000000000000000000000000000000000000000000000000 DUP2 MSTORE DUP4 PUSH1 0x2 DUP3 ADD MSTORE DUP3 PUSH1 0x22 DUP3 ADD MSTORE PUSH1 0x42 DUP2 KECCAK256 SWAP2 POP POP SWAP3 SWAP2 POP POP JUMP JUMPDEST PUSH0 PUSH0 PUSH0 PUSH32 0x7FFFFFFFFFFFFFFFFFFFFFFFFFFFFFFF5D576E7357A4501DDFE92F46681B20A0 DUP5 PUSH0 SHR GT ISZERO PUSH2 0x14FF JUMPI PUSH0 PUSH1 0x3 DUP6 SWAP3 POP SWAP3 POP SWAP3 POP PUSH2 0x15A0 JUMP JUMPDEST PUSH0 PUSH1 0x1 DUP9 DUP9 DUP9 DUP9 PUSH1 0x40 MLOAD PUSH0 DUP2 MSTORE PUSH1 0x20 ADD PUSH1 0x40 MSTORE PUSH1 0x40 MLOAD PUSH2 0x1522 SWAP5 SWAP4 SWAP3 SWAP2 SWAP1 PUSH2 0x24B2 JUMP JUMPDEST PUSH1 0x20 PUSH1 0x40 MLOAD PUSH1 0x20 DUP2 SUB SWAP1 DUP1 DUP5 SUB SWAP1 DUP6 GAS STATICCALL ISZERO DUP1 ISZERO PUSH2 0x1542 JUMPI RETURNDATASIZE PUSH0 PUSH0 RETURNDATACOPY RETURNDATASIZE PUSH0 REVERT JUMPDEST POP POP POP PUSH1 0x20 PUSH1 0x40 MLOAD SUB MLOAD SWAP1 POP PUSH0 PUSH20 0xFFFFFFFFFFFFFFFFFFFFFFFFFFFFFFFFFFFFFFFF AND DUP2 PUSH20 0xFFFFFFFFFFFFFFFFFFFFFFFFFFFFFFFFFFFFFFFF AND SUB PUSH2 0x1593 JUMPI PUSH0 PUSH1 0x1 PUSH0 PUSH0 SHL SWAP4 POP SWAP4 POP SWAP4 POP POP PUSH2 0x15A0 JUMP JUMPDEST DUP1 PUSH0 PUSH0 PUSH0 SHL SWAP4 POP SWAP4 POP SWAP4 POP POP JUMPDEST SWAP5 POP SWAP5 POP SWAP5 SWAP2 POP POP JUMP JUMPDEST PUSH0 PUSH32 0x8B73C3C69BB8FE3D512ECC4CF759CC79239F7B179B0FFACAA9A75D522B39400F PUSH2 0x15D4 PUSH2 0x160D JUMP JUMPDEST PUSH2 0x15DC PUSH2 0x1683 JUMP JUMPDEST CHAINID ADDRESS PUSH1 0x40 MLOAD PUSH1 0x20 ADD PUSH2 0x15F2 SWAP6 SWAP5 SWAP4 SWAP3 SWAP2 SWAP1 PUSH2 0x24F5 JUMP JUMPDEST PUSH1 0x40 MLOAD PUSH1 0x20 DUP2 DUP4 SUB SUB DUP2 MSTORE SWAP1 PUSH1 0x40 MSTORE DUP1 MLOAD SWAP1 PUSH1 0x20 ADD KECCAK256 SWAP1 POP SWAP1 JUMP JUMPDEST PUSH0 PUSH0 PUSH2 0x1617 PUSH2 0xFE1 JUMP JUMPDEST SWAP1 POP PUSH0 PUSH2 0x1622 PUSH2 0x1008 JUMP JUMPDEST SWAP1 POP PUSH0 DUP2 MLOAD GT ISZERO PUSH2 0x163E JUMPI DUP1 DUP1 MLOAD SWAP1 PUSH1 0x20 ADD KECCAK256 SWAP3 POP POP POP PUSH2 0x1680 JUMP JUMPDEST PUSH0 DUP3 PUSH0 ADD SLOAD SWAP1 POP PUSH0 PUSH0 SHL DUP2 EQ PUSH2 0x1659 JUMPI DUP1 SWAP4 POP POP POP POP PUSH2 0x1680 JUMP JUMPDEST PUSH32 0xC5D2460186F7233C927E7DB2DCC703C0E500B653CA82273B7BFAD8045D85A470 SWAP4 POP POP POP POP JUMPDEST SWAP1 JUMP JUMPDEST PUSH0 PUSH0 PUSH2 0x168D PUSH2 0xFE1 JUMP JUMPDEST SWAP1 POP PUSH0 PUSH2 0x1698 PUSH2 0x10A6 JUMP JUMPDEST SWAP1 POP PUSH0 DUP2 MLOAD GT ISZERO PUSH2 0x16B4 JUMPI DUP1 DUP1 MLOAD SWAP1 PUSH1 0x20 ADD KECCAK256 SWAP3 POP POP POP PUSH2 0x16F7 JUMP JUMPDEST PUSH0 DUP3 PUSH1 0x1 ADD SLOAD SWAP1 POP PUSH0 PUSH0 SHL DUP2 EQ PUSH2 0x16D0 JUMPI DUP1 SWAP4 POP POP POP POP PUSH2 0x16F7 JUMP JUMPDEST PUSH32 0xC5D2460186F7233C927E7DB2DCC703C0E500B653CA82273B7BFAD8045D85A470 SWAP4 POP POP POP POP JUMPDEST SWAP1 JUMP JUMPDEST PUSH0 PUSH1 0x40 MLOAD SWAP1 POP SWAP1 JUMP JUMPDEST PUSH0 PUSH0 REVERT JUMPDEST PUSH0 PUSH0 REVERT JUMPDEST PUSH0 DUP2 SWAP1 POP SWAP2 SWAP1 POP JUMP JUMPDEST PUSH2 0x171D DUP2 PUSH2 0x170B JUMP JUMPDEST DUP2 EQ PUSH2 0x1727 JUMPI PUSH0 PUSH0 REVERT JUMPDEST POP JUMP JUMPDEST PUSH0 DUP2 CALLDATALOAD SWAP1 POP PUSH2 0x1738 DUP2 PUSH2 0x1714 JUMP JUMPDEST SWAP3 SWAP2 POP POP JUMP JUMPDEST PUSH0 PUSH0 REVERT JUMPDEST PUSH0 PUSH0 REVERT JUMPDEST PUSH0 PUSH0 REVERT JUMPDEST PUSH0 PUSH0 DUP4 PUSH1 0x1F DUP5 ADD SLT PUSH2 0x175F JUMPI PUSH2 0x175E PUSH2 0x173E JUMP JUMPDEST JUMPDEST DUP3 CALLDATALOAD SWAP1 POP PUSH8 0xFFFFFFFFFFFFFFFF DUP2 GT ISZERO PUSH2 0x177C JUMPI PUSH2 0x177B PUSH2 0x1742 JUMP JUMPDEST JUMPDEST PUSH1 0x20 DUP4 ADD SWAP2 POP DUP4 PUSH1 0x1 DUP3 MUL DUP4 ADD GT ISZERO PUSH2 0x1798 JUMPI PUSH2 0x1797 PUSH2 0x1746 JUMP JUMPDEST JUMPDEST SWAP3 POP SWAP3 SWAP1 POP JUMP JUMPDEST PUSH0 PUSH0 PUSH0 PUSH0 PUSH1 0x60 DUP6 DUP8 SUB SLT ISZERO PUSH2 0x17B7 JUMPI PUSH2 0x17B6 PUSH2 0x1703 JUMP JUMPDEST JUMPDEST PUSH0 PUSH2 0x17C4 DUP8 DUP3 DUP9 ADD PUSH2 0x172A JUMP JUMPDEST SWAP5 POP POP PUSH1 0x20 PUSH2 0x17D5 DUP8 DUP3 DUP9 ADD PUSH2 0x172A JUMP JUMPDEST SWAP4 POP POP PUSH1 0x40 DUP6 ADD CALLDATALOAD PUSH8 0xFFFFFFFFFFFFFFFF DUP2 GT ISZERO PUSH2 0x17F6 JUMPI PUSH2 0x17F5 PUSH2 0x1707 JUMP JUMPDEST JUMPDEST PUSH2 0x1802 DUP8 DUP3 DUP9 ADD PUSH2 0x174A JUMP JUMPDEST SWAP3 POP SWAP3 POP POP SWAP3 SWAP6 SWAP2 SWAP5 POP SWAP3 POP JUMP JUMPDEST PUSH0 PUSH20 0xFFFFFFFFFFFFFFFFFFFFFFFFFFFFFFFFFFFFFFFF DUP3 AND SWAP1 POP SWAP2 SWAP1 POP JUMP JUMPDEST PUSH0 PUSH2 0x1839 DUP3 PUSH2 0x1810 JUMP JUMPDEST SWAP1 POP SWAP2 SWAP1 POP JUMP JUMPDEST PUSH2 0x1849 DUP2 PUSH2 0x182F JUMP JUMPDEST DUP2 EQ PUSH2 0x1853 JUMPI PUSH0 PUSH0 REVERT JUMPDEST POP JUMP JUMPDEST PUSH0 DUP2 CALLDATALOAD SWAP1 POP PUSH2 0x1864 DUP2 PUSH2 0x1840 JUMP JUMPDEST SWAP3 SWAP2 POP POP JUMP JUMPDEST PUSH0 PUSH0 PUSH1 0x40 DUP4 DUP6 SUB SLT ISZERO PUSH2 0x1880 JUMPI PUSH2 0x187F PUSH2 0x1703 JUMP JUMPDEST JUMPDEST PUSH0 PUSH2 0x188D DUP6 DUP3 DUP7 ADD PUSH2 0x1856 JUMP JUMPDEST SWAP3 POP POP PUSH1 0x20 PUSH2 0x189E DUP6 DUP3 DUP7 ADD PUSH2 0x172A JUMP JUMPDEST SWAP2 POP POP SWAP3 POP SWAP3 SWAP1 POP JUMP JUMPDEST PUSH0 DUP2 ISZERO ISZERO SWAP1 POP SWAP2 SWAP1 POP JUMP JUMPDEST PUSH2 0x18BC DUP2 PUSH2 0x18A8 JUMP JUMPDEST DUP3 MSTORE POP POP JUMP JUMPDEST PUSH0 PUSH1 0x20 DUP3 ADD SWAP1 POP PUSH2 0x18D5 PUSH0 DUP4 ADD DUP5 PUSH2 0x18B3 JUMP JUMPDEST SWAP3 SWAP2 POP POP JUMP JUMPDEST PUSH2 0x18E4 DUP2 PUSH2 0x182F JUMP JUMPDEST DUP3 MSTORE POP POP JUMP JUMPDEST PUSH0 PUSH1 0x20 DUP3 ADD SWAP1 POP PUSH2 0x18FD PUSH0 DUP4 ADD DUP5 PUSH2 0x18DB JUMP JUMPDEST SWAP3 SWAP2 POP POP JUMP JUMPDEST PUSH0 PUSH0 REVERT JUMPDEST PUSH0 PUSH1 0x1F NOT PUSH1 0x1F DUP4 ADD AND SWAP1 POP SWAP2 SWAP1 POP JUMP JUMPDEST PUSH32 0x4E487B7100000000000000000000000000000000000000000000000000000000 PUSH0 MSTORE PUSH1 0x41 PUSH1 0x4 MSTORE PUSH1 0x24 PUSH0 REVERT JUMPDEST PUSH2 0x194D DUP3 PUSH2 0x1907 JUMP JUMPDEST DUP2 ADD DUP2 DUP2 LT PUSH8 0xFFFFFFFFFFFFFFFF DUP3 GT OR ISZERO PUSH2 0x196C JUMPI PUSH2 0x196B PUSH2 0x1917 JUMP JUMPDEST JUMPDEST DUP1 PUSH1 0x40 MSTORE POP POP POP JUMP JUMPDEST PUSH0 PUSH2 0x197E PUSH2 0x16FA JUMP JUMPDEST SWAP1 POP PUSH2 0x198A DUP3 DUP3 PUSH2 0x1944 JUMP JUMPDEST SWAP2 SWAP1 POP JUMP JUMPDEST PUSH0 PUSH8 0xFFFFFFFFFFFFFFFF DUP3 GT ISZERO PUSH2 0x19A9 JUMPI PUSH2 0x19A8 PUSH2 0x1917 JUMP JUMPDEST JUMPDEST PUSH2 0x19B2 DUP3 PUSH2 0x1907 JUMP JUMPDEST SWAP1 POP PUSH1 0x20 DUP2 ADD SWAP1 POP SWAP2 SWAP1 POP JUMP JUMPDEST DUP3 DUP2 DUP4 CALLDATACOPY PUSH0 DUP4 DUP4 ADD MSTORE POP POP POP JUMP JUMPDEST PUSH0 PUSH2 0x19DF PUSH2 0x19DA DUP5 PUSH2 0x198F JUMP JUMPDEST PUSH2 0x1975 JUMP JUMPDEST SWAP1 POP DUP3 DUP2 MSTORE PUSH1 0x20 DUP2 ADD DUP5 DUP5 DUP5 ADD GT ISZERO PUSH2 0x19FB JUMPI PUSH2 0x19FA PUSH2 0x1903 JUMP JUMPDEST JUMPDEST PUSH2 0x1A06 DUP5 DUP3 DUP6 PUSH2 0x19BF JUMP JUMPDEST POP SWAP4 SWAP3 POP POP POP JUMP JUMPDEST PUSH0 DUP3 PUSH1 0x1F DUP4 ADD SLT PUSH2 0x1A22 JUMPI PUSH2 0x1A21 PUSH2 0x173E JUMP JUMPDEST JUMPDEST DUP2 CALLDATALOAD PUSH2 0x1A32 DUP5 DUP3 PUSH1 0x20 DUP7 ADD PUSH2 0x19CD JUMP JUMPDEST SWAP2 POP POP SWAP3 SWAP2 POP POP JUMP JUMPDEST PUSH0 PUSH0 PUSH0 PUSH0 PUSH1 0x80 DUP6 DUP8 SUB SLT ISZERO PUSH2 0x1A53 JUMPI PUSH2 0x1A52 PUSH2 0x1703 JUMP JUMPDEST JUMPDEST PUSH0 PUSH2 0x1A60 DUP8 DUP3 DUP9 ADD PUSH2 0x1856 JUMP JUMPDEST SWAP5 POP POP PUSH1 0x20 PUSH2 0x1A71 DUP8 DUP3 DUP9 ADD PUSH2 0x1856 JUMP JUMPDEST SWAP4 POP POP PUSH1 0x40 PUSH2 0x1A82 DUP8 DUP3 DUP9 ADD PUSH2 0x1856 JUMP JUMPDEST SWAP3 POP POP PUSH1 0x60 DUP6 ADD CALLDATALOAD PUSH8 0xFFFFFFFFFFFFFFFF DUP2 GT ISZERO PUSH2 0x1AA3 JUMPI PUSH2 0x1AA2 PUSH2 0x1707 JUMP JUMPDEST JUMPDEST PUSH2 0x1AAF DUP8 DUP3 DUP9 ADD PUSH2 0x1A0E JUMP JUMPDEST SWAP2 POP POP SWAP3 SWAP6 SWAP2 SWAP5 POP SWAP3 POP JUMP JUMPDEST PUSH0 DUP2 MLOAD SWAP1 POP SWAP2 SWAP1 POP JUMP JUMPDEST PUSH0 DUP3 DUP3 MSTORE PUSH1 0x20 DUP3 ADD SWAP1 POP SWAP3 SWAP2 POP POP JUMP JUMPDEST DUP3 DUP2 DUP4 MCOPY PUSH0 DUP4 DUP4 ADD MSTORE POP POP POP JUMP JUMPDEST PUSH0 PUSH2 0x1AED DUP3 PUSH2 0x1ABB JUMP JUMPDEST PUSH2 0x1AF7 DUP2 DUP6 PUSH2 0x1AC5 JUMP JUMPDEST SWAP4 POP PUSH2 0x1B07 DUP2 DUP6 PUSH1 0x20 DUP7 ADD PUSH2 0x1AD5 JUMP JUMPDEST PUSH2 0x1B10 DUP2 PUSH2 0x1907 JUMP JUMPDEST DUP5 ADD SWAP2 POP POP SWAP3 SWAP2 POP POP JUMP JUMPDEST PUSH0 PUSH1 0x20 DUP3 ADD SWAP1 POP DUP2 DUP2 SUB PUSH0 DUP4 ADD MSTORE PUSH2 0x1B33 DUP2 DUP5 PUSH2 0x1AE3 JUMP JUMPDEST SWAP1 POP SWAP3 SWAP2 POP POP JUMP JUMPDEST PUSH0 PUSH32 0xFF00000000000000000000000000000000000000000000000000000000000000 DUP3 AND SWAP1 POP SWAP2 SWAP1 POP JUMP JUMPDEST PUSH2 0x1B6F DUP2 PUSH2 0x1B3B JUMP JUMPDEST DUP3 MSTORE POP POP JUMP JUMPDEST PUSH2 0x1B7E DUP2 PUSH2 0x170B JUMP JUMPDEST DUP3 MSTORE POP POP JUMP JUMPDEST PUSH0 DUP2 SWAP1 POP SWAP2 SWAP1 POP JUMP JUMPDEST PUSH2 0x1B96 DUP2 PUSH2 0x1B84 JUMP JUMPDEST DUP3 MSTORE POP POP JUMP JUMPDEST PUSH0 DUP2 MLOAD SWAP1 POP SWAP2 SWAP1 POP JUMP JUMPDEST PUSH0 DUP3 DUP3 MSTORE PUSH1 0x20 DUP3 ADD SWAP1 POP SWAP3 SWAP2 POP POP JUMP JUMPDEST PUSH0 DUP2 SWAP1 POP PUSH1 0x20 DUP3 ADD SWAP1 POP SWAP2 SWAP1 POP JUMP JUMPDEST PUSH2 0x1BCE DUP2 PUSH2 0x170B JUMP JUMPDEST DUP3 MSTORE POP POP JUMP JUMPDEST PUSH0 PUSH2 0x1BDF DUP4 DUP4 PUSH2 0x1BC5 JUMP JUMPDEST PUSH1 0x20 DUP4 ADD SWAP1 POP SWAP3 SWAP2 POP POP JUMP JUMPDEST PUSH0 PUSH1 0x20 DUP3 ADD SWAP1 POP SWAP2 SWAP1 POP JUMP JUMPDEST PUSH0 PUSH2 0x1C01 DUP3 PUSH2 0x1B9C JUMP JUMPDEST PUSH2 0x1C0B DUP2 DUP6 PUSH2 0x1BA6 JUMP JUMPDEST SWAP4 POP PUSH2 0x1C16 DUP4 PUSH2 0x1BB6 JUMP JUMPDEST DUP1 PUSH0 JUMPDEST DUP4 DUP2 LT ISZERO PUSH2 0x1C46 JUMPI DUP2 MLOAD PUSH2 0x1C2D DUP9 DUP3 PUSH2 0x1BD4 JUMP JUMPDEST SWAP8 POP PUSH2 0x1C38 DUP4 PUSH2 0x1BEB JUMP JUMPDEST SWAP3 POP POP PUSH1 0x1 DUP2 ADD SWAP1 POP PUSH2 0x1C19 JUMP JUMPDEST POP DUP6 SWAP4 POP POP POP POP SWAP3 SWAP2 POP POP JUMP JUMPDEST PUSH0 PUSH1 0xE0 DUP3 ADD SWAP1 POP PUSH2 0x1C66 PUSH0 DUP4 ADD DUP11 PUSH2 0x1B66 JUMP JUMPDEST DUP2 DUP2 SUB PUSH1 0x20 DUP4 ADD MSTORE PUSH2 0x1C78 DUP2 DUP10 PUSH2 0x1AE3 JUMP JUMPDEST SWAP1 POP DUP2 DUP2 SUB PUSH1 0x40 DUP4 ADD MSTORE PUSH2 0x1C8C DUP2 DUP9 PUSH2 0x1AE3 JUMP JUMPDEST SWAP1 POP PUSH2 0x1C9B PUSH1 0x60 DUP4 ADD DUP8 PUSH2 0x1B75 JUMP JUMPDEST PUSH2 0x1CA8 PUSH1 0x80 DUP4 ADD DUP7 PUSH2 0x18DB JUMP JUMPDEST PUSH2 0x1CB5 PUSH1 0xA0 DUP4 ADD DUP6 PUSH2 0x1B8D JUMP JUMPDEST DUP2 DUP2 SUB PUSH1 0xC0 DUP4 ADD MSTORE PUSH2 0x1CC7 DUP2 DUP5 PUSH2 0x1BF7 JUMP JUMPDEST SWAP1 POP SWAP9 SWAP8 POP POP POP POP POP POP POP POP JUMP JUMPDEST PUSH0 PUSH1 0x20 DUP3 ADD SWAP1 POP PUSH2 0x1CE8 PUSH0 DUP4 ADD DUP5 PUSH2 0x1B8D JUMP JUMPDEST SWAP3 SWAP2 POP POP JUMP JUMPDEST PUSH0 PUSH1 0x20 DUP3 DUP5 SUB SLT ISZERO PUSH2 0x1D03 JUMPI PUSH2 0x1D02 PUSH2 0x1703 JUMP JUMPDEST JUMPDEST PUSH0 PUSH2 0x1D10 DUP5 DUP3 DUP6 ADD PUSH2 0x172A JUMP JUMPDEST SWAP2 POP POP SWAP3 SWAP2 POP POP JUMP JUMPDEST PUSH0 PUSH8 0xFFFFFFFFFFFFFFFF DUP3 GT ISZERO PUSH2 0x1D33 JUMPI PUSH2 0x1D32 PUSH2 0x1917 JUMP JUMPDEST JUMPDEST PUSH2 0x1D3C DUP3 PUSH2 0x1907 JUMP JUMPDEST SWAP1 POP PUSH1 0x20 DUP2 ADD SWAP1 POP SWAP2 SWAP1 POP JUMP JUMPDEST PUSH0 PUSH2 0x1D5B PUSH2 0x1D56 DUP5 PUSH2 0x1D19 JUMP JUMPDEST PUSH2 0x1975 JUMP JUMPDEST SWAP1 POP DUP3 DUP2 MSTORE PUSH1 0x20 DUP2 ADD DUP5 DUP5 DUP5 ADD GT ISZERO PUSH2 0x1D77 JUMPI PUSH2 0x1D76 PUSH2 0x1903 JUMP JUMPDEST JUMPDEST PUSH2 0x1D82 DUP5 DUP3 DUP6 PUSH2 0x19BF JUMP JUMPDEST POP SWAP4 SWAP3 POP POP POP JUMP JUMPDEST PUSH0 DUP3 PUSH1 0x1F DUP4 ADD SLT PUSH2 0x1D9E JUMPI PUSH2 0x1D9D PUSH2 0x173E JUMP JUMPDEST JUMPDEST DUP2 CALLDATALOAD PUSH2 0x1DAE DUP5 DUP3 PUSH1 0x20 DUP7 ADD PUSH2 0x1D49 JUMP JUMPDEST SWAP2 POP POP SWAP3 SWAP2 POP POP JUMP JUMPDEST PUSH0 PUSH0 PUSH0 PUSH0 PUSH1 0x80 DUP6 DUP8 SUB SLT ISZERO PUSH2 0x1DCF JUMPI PUSH2 0x1DCE PUSH2 0x1703 JUMP JUMPDEST JUMPDEST PUSH0 PUSH2 0x1DDC DUP8 DUP3 DUP9 ADD PUSH2 0x1856 JUMP JUMPDEST SWAP5 POP POP PUSH1 0x20 PUSH2 0x1DED DUP8 DUP3 DUP9 ADD PUSH2 0x172A JUMP JUMPDEST SWAP4 POP POP PUSH1 0x40 PUSH2 0x1DFE DUP8 DUP3 DUP9 ADD PUSH2 0x172A JUMP JUMPDEST SWAP3 POP POP PUSH1 0x60 DUP6 ADD CALLDATALOAD PUSH8 0xFFFFFFFFFFFFFFFF DUP2 GT ISZERO PUSH2 0x1E1F JUMPI PUSH2 0x1E1E PUSH2 0x1707 JUMP JUMPDEST JUMPDEST PUSH2 0x1E2B DUP8 DUP3 DUP9 ADD PUSH2 0x1D8A JUMP JUMPDEST SWAP2 POP POP SWAP3 SWAP6 SWAP2 SWAP5 POP SWAP3 POP JUMP JUMPDEST PUSH0 PUSH10 0xFFFFFFFFFFFFFFFFFFFF DUP3 AND SWAP1 POP SWAP2 SWAP1 POP JUMP JUMPDEST PUSH2 0x1E55 DUP2 PUSH2 0x1E37 JUMP JUMPDEST DUP2 EQ PUSH2 0x1E5F JUMPI PUSH0 PUSH0 REVERT JUMPDEST POP JUMP JUMPDEST PUSH0 DUP2 MLOAD SWAP1 POP PUSH2 0x1E70 DUP2 PUSH2 0x1E4C JUMP JUMPDEST SWAP3 SWAP2 POP POP JUMP JUMPDEST PUSH0 DUP2 SWAP1 POP SWAP2 SWAP1 POP JUMP JUMPDEST PUSH2 0x1E88 DUP2 PUSH2 0x1E76 JUMP JUMPDEST DUP2 EQ PUSH2 0x1E92 JUMPI PUSH0 PUSH0 REVERT JUMPDEST POP JUMP JUMPDEST PUSH0 DUP2 MLOAD SWAP1 POP PUSH2 0x1EA3 DUP2 PUSH2 0x1E7F JUMP JUMPDEST SWAP3 SWAP2 POP POP JUMP JUMPDEST PUSH0 DUP2 MLOAD SWAP1 POP PUSH2 0x1EB7 DUP2 PUSH2 0x1714 JUMP JUMPDEST SWAP3 SWAP2 POP POP JUMP JUMPDEST PUSH0 PUSH0 PUSH0 PUSH0 PUSH0 PUSH1 0xA0 DUP7 DUP9 SUB SLT ISZERO PUSH2 0x1ED6 JUMPI PUSH2 0x1ED5 PUSH2 0x1703 JUMP JUMPDEST JUMPDEST PUSH0 PUSH2 0x1EE3 DUP9 DUP3 DUP10 ADD PUSH2 0x1E62 JUMP JUMPDEST SWAP6 POP POP PUSH1 0x20 PUSH2 0x1EF4 DUP9 DUP3 DUP10 ADD PUSH2 0x1E95 JUMP JUMPDEST SWAP5 POP POP PUSH1 0x40 PUSH2 0x1F05 DUP9 DUP3 DUP10 ADD PUSH2 0x1EA9 JUMP JUMPDEST SWAP4 POP POP PUSH1 0x60 PUSH2 0x1F16 DUP9 DUP3 DUP10 ADD PUSH2 0x1EA9 JUMP JUMPDEST SWAP3 POP POP PUSH1 0x80 PUSH2 0x1F27 DUP9 DUP3 DUP10 ADD PUSH2 0x1E62 JUMP JUMPDEST SWAP2 POP POP SWAP3 SWAP6 POP SWAP3 SWAP6 SWAP1 SWAP4 POP JUMP JUMPDEST PUSH32 0x4E487B7100000000000000000000000000000000000000000000000000000000 PUSH0 MSTORE PUSH1 0x11 PUSH1 0x4 MSTORE PUSH1 0x24 PUSH0 REVERT JUMPDEST PUSH0 PUSH2 0x1F6B DUP3 PUSH2 0x170B JUMP JUMPDEST SWAP2 POP PUSH2 0x1F76 DUP4 PUSH2 0x170B JUMP JUMPDEST SWAP3 POP DUP3 DUP3 MUL PUSH2 0x1F84 DUP2 PUSH2 0x170B JUMP JUMPDEST SWAP2 POP DUP3 DUP3 DIV DUP5 EQ DUP4 ISZERO OR PUSH2 0x1F9B JUMPI PUSH2 0x1F9A PUSH2 0x1F34 JUMP JUMPDEST JUMPDEST POP SWAP3 SWAP2 POP POP JUMP JUMPDEST PUSH32 0x4E487B7100000000000000000000000000000000000000000000000000000000 PUSH0 MSTORE PUSH1 0x12 PUSH1 0x4 MSTORE PUSH1 0x24 PUSH0 REVERT JUMPDEST PUSH0 PUSH2 0x1FD9 DUP3 PUSH2 0x170B JUMP JUMPDEST SWAP2 POP PUSH2 0x1FE4 DUP4 PUSH2 0x170B JUMP JUMPDEST SWAP3 POP DUP3 PUSH2 0x1FF4 JUMPI PUSH2 0x1FF3 PUSH2 0x1FA2 JUMP JUMPDEST JUMPDEST DUP3 DUP3 DIV SWAP1 POP SWAP3 SWAP2 POP POP JUMP JUMPDEST PUSH0 DUP2 SWAP1 POP SWAP3 SWAP2 POP POP JUMP JUMPDEST POP JUMP JUMPDEST PUSH0 PUSH2 0x2017 PUSH0 DUP4 PUSH2 0x1FFF JUMP JUMPDEST SWAP2 POP PUSH2 0x2022 DUP3 PUSH2 0x2009 JUMP JUMPDEST PUSH0 DUP3 ADD SWAP1 POP SWAP2 SWAP1 POP JUMP JUMPDEST PUSH0 PUSH2 0x2036 DUP3 PUSH2 0x200C JUMP JUMPDEST SWAP2 POP DUP2 SWAP1 POP SWAP2 SWAP1 POP JUMP JUMPDEST PUSH0 PUSH1 0x60 DUP3 ADD SWAP1 POP PUSH2 0x2053 PUSH0 DUP4 ADD DUP7 PUSH2 0x1B75 JUMP JUMPDEST PUSH2 0x2060 PUSH1 0x20 DUP4 ADD DUP6 PUSH2 0x1B75 JUMP JUMPDEST PUSH2 0x206D PUSH1 0x40 DUP4 ADD DUP5 PUSH2 0x1B75 JUMP JUMPDEST SWAP5 SWAP4 POP POP POP POP JUMP JUMPDEST PUSH32 0x4E487B7100000000000000000000000000000000000000000000000000000000 PUSH0 MSTORE PUSH1 0x22 PUSH1 0x4 MSTORE PUSH1 0x24 PUSH0 REVERT JUMPDEST PUSH0 PUSH1 0x2 DUP3 DIV SWAP1 POP PUSH1 0x1 DUP3 AND DUP1 PUSH2 0x20B9 JUMPI PUSH1 0x7F DUP3 AND SWAP2 POP JUMPDEST PUSH1 0x20 DUP3 LT DUP2 SUB PUSH2 0x20CC JUMPI PUSH2 0x20CB PUSH2 0x2075 JUMP JUMPDEST JUMPDEST POP SWAP2 SWAP1 POP JUMP JUMPDEST PUSH0 DUP2 SWAP1 POP DUP2 PUSH0 MSTORE PUSH1 0x20 PUSH0 KECCAK256 SWAP1 POP SWAP2 SWAP1 POP JUMP JUMPDEST PUSH0 PUSH1 0x20 PUSH1 0x1F DUP4 ADD DIV SWAP1 POP SWAP2 SWAP1 POP JUMP JUMPDEST PUSH0 DUP3 DUP3 SHL SWAP1 POP SWAP3 SWAP2 POP POP JUMP JUMPDEST PUSH0 PUSH1 0x8 DUP4 MUL PUSH2 0x212E PUSH32 0xFFFFFFFFFFFFFFFFFFFFFFFFFFFFFFFFFFFFFFFFFFFFFFFFFFFFFFFFFFFFFFFF DUP3 PUSH2 0x20F3 JUMP JUMPDEST PUSH2 0x2138 DUP7 DUP4 PUSH2 0x20F3 JUMP JUMPDEST SWAP6 POP DUP1 NOT DUP5 AND SWAP4 POP DUP1 DUP7 AND DUP5 OR SWAP3 POP POP POP SWAP4 SWAP3 POP POP POP JUMP JUMPDEST PUSH0 DUP2 SWAP1 POP SWAP2 SWAP1 POP JUMP JUMPDEST PUSH0 PUSH2 0x2173 PUSH2 0x216E PUSH2 0x2169 DUP5 PUSH2 0x170B JUMP JUMPDEST PUSH2 0x2150 JUMP JUMPDEST PUSH2 0x170B JUMP JUMPDEST SWAP1 POP SWAP2 SWAP1 POP JUMP JUMPDEST PUSH0 DUP2 SWAP1 POP SWAP2 SWAP1 POP JUMP JUMPDEST PUSH2 0x218C DUP4 PUSH2 0x2159 JUMP JUMPDEST PUSH2 0x21A0 PUSH2 0x2198 DUP3 PUSH2 0x217A JUMP JUMPDEST DUP5 DUP5 SLOAD PUSH2 0x20FF JUMP JUMPDEST DUP3 SSTORE POP POP POP POP JUMP JUMPDEST PUSH0 PUSH0 SWAP1 POP SWAP1 JUMP JUMPDEST PUSH2 0x21B7 PUSH2 0x21A8 JUMP JUMPDEST PUSH2 0x21C2 DUP2 DUP5 DUP5 PUSH2 0x2183 JUMP JUMPDEST POP POP POP JUMP JUMPDEST JUMPDEST DUP2 DUP2 LT ISZERO PUSH2 0x21E5 JUMPI PUSH2 0x21DA PUSH0 DUP3 PUSH2 0x21AF JUMP JUMPDEST PUSH1 0x1 DUP2 ADD SWAP1 POP PUSH2 0x21C8 JUMP JUMPDEST POP POP JUMP JUMPDEST PUSH1 0x1F DUP3 GT ISZERO PUSH2 0x222A JUMPI PUSH2 0x21FB DUP2 PUSH2 0x20D2 JUMP JUMPDEST PUSH2 0x2204 DUP5 PUSH2 0x20E4 JUMP JUMPDEST DUP2 ADD PUSH1 0x20 DUP6 LT ISZERO PUSH2 0x2213 JUMPI DUP2 SWAP1 POP JUMPDEST PUSH2 0x2227 PUSH2 0x221F DUP6 PUSH2 0x20E4 JUMP JUMPDEST DUP4 ADD DUP3 PUSH2 0x21C7 JUMP JUMPDEST POP POP JUMPDEST POP POP POP JUMP JUMPDEST PUSH0 DUP3 DUP3 SHR SWAP1 POP SWAP3 SWAP2 POP POP JUMP JUMPDEST PUSH0 PUSH2 0x224A PUSH0 NOT DUP5 PUSH1 0x8 MUL PUSH2 0x222F JUMP JUMPDEST NOT DUP1 DUP4 AND SWAP2 POP POP SWAP3 SWAP2 POP POP JUMP JUMPDEST PUSH0 PUSH2 0x2262 DUP4 DUP4 PUSH2 0x223B JUMP JUMPDEST SWAP2 POP DUP3 PUSH1 0x2 MUL DUP3 OR SWAP1 POP SWAP3 SWAP2 POP POP JUMP JUMPDEST PUSH2 0x227B DUP3 PUSH2 0x1ABB JUMP JUMPDEST PUSH8 0xFFFFFFFFFFFFFFFF DUP2 GT ISZERO PUSH2 0x2294 JUMPI PUSH2 0x2293 PUSH2 0x1917 JUMP JUMPDEST JUMPDEST PUSH2 0x229E DUP3 SLOAD PUSH2 0x20A2 JUMP JUMPDEST PUSH2 0x22A9 DUP3 DUP3 DUP6 PUSH2 0x21E9 JUMP JUMPDEST PUSH0 PUSH1 0x20 SWAP1 POP PUSH1 0x1F DUP4 GT PUSH1 0x1 DUP2 EQ PUSH2 0x22DA JUMPI PUSH0 DUP5 ISZERO PUSH2 0x22C8 JUMPI DUP3 DUP8 ADD MLOAD SWAP1 POP JUMPDEST PUSH2 0x22D2 DUP6 DUP3 PUSH2 0x2257 JUMP JUMPDEST DUP7 SSTORE POP PUSH2 0x2339 JUMP JUMPDEST PUSH1 0x1F NOT DUP5 AND PUSH2 0x22E8 DUP7 PUSH2 0x20D2 JUMP JUMPDEST PUSH0 JUMPDEST DUP3 DUP2 LT ISZERO PUSH2 0x230F JUMPI DUP5 DUP10 ADD MLOAD DUP3 SSTORE PUSH1 0x1 DUP3 ADD SWAP2 POP PUSH1 0x20 DUP6 ADD SWAP5 POP PUSH1 0x20 DUP2 ADD SWAP1 POP PUSH2 0x22EA JUMP JUMPDEST DUP7 DUP4 LT ISZERO PUSH2 0x232C JUMPI DUP5 DUP10 ADD MLOAD PUSH2 0x2328 PUSH1 0x1F DUP10 AND DUP3 PUSH2 0x223B JUMP JUMPDEST DUP4 SSTORE POP JUMPDEST PUSH1 0x1 PUSH1 0x2 DUP9 MUL ADD DUP9 SSTORE POP POP POP JUMPDEST POP POP POP POP POP POP JUMP JUMPDEST PUSH0 DUP2 SWAP1 POP SWAP2 SWAP1 POP JUMP JUMPDEST PUSH0 PUSH8 0xFFFFFFFFFFFFFFFF DUP3 AND SWAP1 POP SWAP2 SWAP1 POP JUMP JUMPDEST PUSH0 PUSH2 0x2377 PUSH2 0x2372 PUSH2 0x236D DUP5 PUSH2 0x2341 JUMP JUMPDEST PUSH2 0x2150 JUMP JUMPDEST PUSH2 0x234A JUMP JUMPDEST SWAP1 POP SWAP2 SWAP1 POP JUMP JUMPDEST PUSH2 0x2387 DUP2 PUSH2 0x235D JUMP JUMPDEST DUP3 MSTORE POP POP JUMP JUMPDEST PUSH0 PUSH1 0x20 DUP3 ADD SWAP1 POP PUSH2 0x23A0 PUSH0 DUP4 ADD DUP5 PUSH2 0x237E JUMP JUMPDEST SWAP3 SWAP2 POP POP JUMP JUMPDEST PUSH32 0x4549503731323A20556E696E697469616C697A65640000000000000000000000 PUSH0 DUP3 ADD MSTORE POP JUMP JUMPDEST PUSH0 PUSH2 0x23DA PUSH1 0x15 DUP4 PUSH2 0x1AC5 JUMP JUMPDEST SWAP2 POP PUSH2 0x23E5 DUP3 PUSH2 0x23A6 JUMP JUMPDEST PUSH1 0x20 DUP3 ADD SWAP1 POP SWAP2 SWAP1 POP JUMP JUMPDEST PUSH0 PUSH1 0x20 DUP3 ADD SWAP1 POP DUP2 DUP2 SUB PUSH0 DUP4 ADD MSTORE PUSH2 0x2407 DUP2 PUSH2 0x23CE JUMP JUMPDEST SWAP1 POP SWAP2 SWAP1 POP JUMP JUMPDEST PUSH0 PUSH1 0x20 DUP3 ADD SWAP1 POP PUSH2 0x2421 PUSH0 DUP4 ADD DUP5 PUSH2 0x1B75 JUMP JUMPDEST SWAP3 SWAP2 POP POP JUMP JUMPDEST PUSH0 PUSH1 0x80 DUP3 ADD SWAP1 POP PUSH2 0x243A PUSH0 DUP4 ADD DUP8 PUSH2 0x1B8D JUMP JUMPDEST PUSH2 0x2447 PUSH1 0x20 DUP4 ADD DUP7 PUSH2 0x18DB JUMP JUMPDEST PUSH2 0x2454 PUSH1 0x40 DUP4 ADD DUP6 PUSH2 0x1B75 JUMP JUMPDEST PUSH2 0x2461 PUSH1 0x60 DUP4 ADD DUP5 PUSH2 0x1B75 JUMP JUMPDEST SWAP6 SWAP5 POP POP POP POP POP JUMP JUMPDEST PUSH32 0x4E487B7100000000000000000000000000000000000000000000000000000000 PUSH0 MSTORE PUSH1 0x21 PUSH1 0x4 MSTORE PUSH1 0x24 PUSH0 REVERT JUMPDEST PUSH0 PUSH1 0xFF DUP3 AND SWAP1 POP SWAP2 SWAP1 POP JUMP JUMPDEST PUSH2 0x24AC DUP2 PUSH2 0x2497 JUMP JUMPDEST DUP3 MSTORE POP POP JUMP JUMPDEST PUSH0 PUSH1 0x80 DUP3 ADD SWAP1 POP PUSH2 0x24C5 PUSH0 DUP4 ADD DUP8 PUSH2 0x1B8D JUMP JUMPDEST PUSH2 0x24D2 PUSH1 0x20 DUP4 ADD DUP7 PUSH2 0x24A3 JUMP JUMPDEST PUSH2 0x24DF PUSH1 0x40 DUP4 ADD DUP6 PUSH2 0x1B8D JUMP JUMPDEST PUSH2 0x24EC PUSH1 0x60 DUP4 ADD DUP5 PUSH2 0x1B8D JUMP JUMPDEST SWAP6 SWAP5 POP POP POP POP POP JUMP JUMPDEST PUSH0 PUSH1 0xA0 DUP3 ADD SWAP1 POP PUSH2 0x2508 PUSH0 DUP4 ADD DUP9 PUSH2 0x1B8D JUMP JUMPDEST PUSH2 0x2515 PUSH1 0x20 DUP4 ADD DUP8 PUSH2 0x1B8D JUMP JUMPDEST PUSH2 0x2522 PUSH1 0x40 DUP4 ADD DUP7 PUSH2 0x1B8D JUMP JUMPDEST PUSH2 0x252F PUSH1 0x60 DUP4 ADD DUP6 PUSH2 0x1B75 JUMP JUMPDEST PUSH2 0x253C PUSH1 0x80 DUP4 ADD DUP5 PUSH2 0x18DB JUMP JUMPDEST SWAP7 SWAP6 POP POP POP POP POP POP JUMP INVALID LOG2 PUSH5 0x6970667358 0x22 SLT KECCAK256 PUSH0 0xC5 SWAP4 DUP5 LOG0 0xDA LOG3 PUSH17 0x5053BB73862F0B4F7187F4D65FCFFFB434 0xCB GASLIMIT CALLDATASIZE 0xB5 GASLIMIT PUSH7 0xF264736F6C6343 STOP ADDMOD SHR STOP CALLER "
		},
		"gasEstimates": {
			"creation": {
				"codeDepositCost": "1919200",
				"executionCost": "24137",
				"totalCost": "1943337"
			},
			"external": {
				"PAY_PROOF_TYPEHASH()": "369",
				"departmentName()": "infinite",
				"director()": "2553",
				"directorWithdraw(uint256)": "infinite",
				"eip712Domain()": "infinite",
				"fund()": "3967",
				"hr()": "2619",
				"initialize(address,address,address,string)": "infinite",
				"isClaimed(address,uint256)": "3093",
				"priceFeed()": "2508",
				"salaryClaim(uint256,uint256,bytes)": "infinite",
				"verifySignature(address,uint256,uint256,bytes)": "infinite"
			},
			"internal": {
				"_hashPayStub(address,uint256,uint256)": "infinite"
			}
		},
		"methodIdentifiers": {
			"PAY_PROOF_TYPEHASH()": "8aa6513c",
			"departmentName()": "6fec9219",
			"director()": "5af82abf",
			"directorWithdraw(uint256)": "b22a6d47",
			"eip712Domain()": "84b0196e",
			"fund()": "b60d4288",
			"hr()": "71b727d5",
			"initialize(address,address,address,string)": "65e8e4f4",
			"isClaimed(address,uint256)": "562beba8",
			"priceFeed()": "741bef1a",
			"salaryClaim(uint256,uint256,bytes)": "51433042",
			"verifySignature(address,uint256,uint256,bytes)": "ec0e642f"
		}
	},
	"abi": [
		{
			"inputs": [],
			"name": "AlreadyClaimed",
			"type": "error"
		},
		{
			"inputs": [],
			"name": "ECDSAInvalidSignature",
			"type": "error"
		},
		{
			"inputs": [
				{
					"internalType": "uint256",
					"name": "length",
					"type": "uint256"
				}
			],
			"name": "ECDSAInvalidSignatureLength",
			"type": "error"
		},
		{
			"inputs": [
				{
					"internalType": "bytes32",
					"name": "s",
					"type": "bytes32"
				}
			],
			"name": "ECDSAInvalidSignatureS",
			"type": "error"
		},
		{
			"inputs": [],
			"name": "InsufficientBalance",
			"type": "error"
		},
		{
			"inputs": [],
			"name": "InvalidInitialization",
			"type": "error"
		},
		{
			"inputs": [],
			"name": "InvalidPrice",
			"type": "error"
		},
		{
			"inputs": [],
			"name": "InvalidSignature",
			"type": "error"
		},
		{
			"inputs": [],
			"name": "NotEnoughETH",
			"type": "error"
		},
		{
			"inputs": [],
			"name": "NotInitializing",
			"type": "error"
		},
		{
			"inputs": [],
			"name": "OnlyDirectorCanFund",
			"type": "error"
		},
		{
			"inputs": [],
			"name": "OnlyDirectorCanWithdraw",
			"type": "error"
		},
		{
			"inputs": [],
			"name": "ReentrancyGuardReentrantCall",
			"type": "error"
		},
		{
			"inputs": [],
			"name": "TransferFailed",
			"type": "error"
		},
		{
			"inputs": [],
			"name": "WithdrawFailed",
			"type": "error"
		},
		{
			"anonymous": false,
			"inputs": [
				{
					"indexed": true,
					"internalType": "address",
					"name": "to",
					"type": "address"
				},
				{
					"indexed": false,
					"internalType": "uint256",
					"name": "amount",
					"type": "uint256"
				}
			],
			"name": "DirectorWithdrawable",
			"type": "event"
		},
		{
			"anonymous": false,
			"inputs": [],
			"name": "EIP712DomainChanged",
			"type": "event"
		},
		{
			"anonymous": false,
			"inputs": [
				{
					"indexed": true,
					"internalType": "address",
					"name": "from",
					"type": "address"
				},
				{
					"indexed": false,
					"internalType": "uint256",
					"name": "amount",
					"type": "uint256"
				}
			],
			"name": "Funded",
			"type": "event"
		},
		{
			"anonymous": false,
			"inputs": [
				{
					"indexed": false,
					"internalType": "uint64",
					"name": "version",
					"type": "uint64"
				}
			],
			"name": "Initialized",
			"type": "event"
		},
		{
			"anonymous": false,
			"inputs": [
				{
					"indexed": true,
					"internalType": "address",
					"name": "employee",
					"type": "address"
				},
				{
					"indexed": false,
					"internalType": "uint256",
					"name": "period",
					"type": "uint256"
				},
				{
					"indexed": false,
					"internalType": "uint256",
					"name": "usdAmount",
					"type": "uint256"
				},
				{
					"indexed": false,
					"internalType": "uint256",
					"name": "ethAmount",
					"type": "uint256"
				}
			],
			"name": "SalaryClaimed",
			"type": "event"
		},
		{
			"inputs": [],
			"name": "PAY_PROOF_TYPEHASH",
			"outputs": [
				{
					"internalType": "bytes32",
					"name": "",
					"type": "bytes32"
				}
			],
			"stateMutability": "view",
			"type": "function"
		},
		{
			"inputs": [],
			"name": "departmentName",
			"outputs": [
				{
					"internalType": "string",
					"name": "",
					"type": "string"
				}
			],
			"stateMutability": "view",
			"type": "function"
		},
		{
			"inputs": [],
			"name": "director",
			"outputs": [
				{
					"internalType": "address",
					"name": "",
					"type": "address"
				}
			],
			"stateMutability": "view",
			"type": "function"
		},
		{
			"inputs": [
				{
					"internalType": "uint256",
					"name": "amount",
					"type": "uint256"
				}
			],
			"name": "directorWithdraw",
			"outputs": [],
			"stateMutability": "nonpayable",
			"type": "function"
		},
		{
			"inputs": [],
			"name": "eip712Domain",
			"outputs": [
				{
					"internalType": "bytes1",
					"name": "fields",
					"type": "bytes1"
				},
				{
					"internalType": "string",
					"name": "name",
					"type": "string"
				},
				{
					"internalType": "string",
					"name": "version",
					"type": "string"
				},
				{
					"internalType": "uint256",
					"name": "chainId",
					"type": "uint256"
				},
				{
					"internalType": "address",
					"name": "verifyingContract",
					"type": "address"
				},
				{
					"internalType": "bytes32",
					"name": "salt",
					"type": "bytes32"
				},
				{
					"internalType": "uint256[]",
					"name": "extensions",
					"type": "uint256[]"
				}
			],
			"stateMutability": "view",
			"type": "function"
		},
		{
			"inputs": [],
			"name": "fund",
			"outputs": [],
			"stateMutability": "payable",
			"type": "function"
		},
		{
			"inputs": [],
			"name": "hr",
			"outputs": [
				{
					"internalType": "address",
					"name": "",
					"type": "address"
				}
			],
			"stateMutability": "view",
			"type": "function"
		},
		{
			"inputs": [
				{
					"internalType": "address",
					"name": "_hr",
					"type": "address"
				},
				{
					"internalType": "address",
					"name": "_director",
					"type": "address"
				},
				{
					"internalType": "address",
					"name": "_priceFeed",
					"type": "address"
				},
				{
					"internalType": "string",
					"name": "_departmentName",
					"type": "string"
				}
			],
			"name": "initialize",
			"outputs": [],
			"stateMutability": "nonpayable",
			"type": "function"
		},
		{
			"inputs": [
				{
					"internalType": "address",
					"name": "",
					"type": "address"
				},
				{
					"internalType": "uint256",
					"name": "",
					"type": "uint256"
				}
			],
			"name": "isClaimed",
			"outputs": [
				{
					"internalType": "bool",
					"name": "",
					"type": "bool"
				}
			],
			"stateMutability": "view",
			"type": "function"
		},
		{
			"inputs": [],
			"name": "priceFeed",
			"outputs": [
				{
					"internalType": "address",
					"name": "",
					"type": "address"
				}
			],
			"stateMutability": "view",
			"type": "function"
		},
		{
			"inputs": [
				{
					"internalType": "uint256",
					"name": "period",
					"type": "uint256"
				},
				{
					"internalType": "uint256",
					"name": "usdGross",
					"type": "uint256"
				},
				{
					"internalType": "bytes",
					"name": "signature",
					"type": "bytes"
				}
			],
			"name": "salaryClaim",
			"outputs": [],
			"stateMutability": "nonpayable",
			"type": "function"
		},
		{
			"inputs": [
				{
					"internalType": "address",
					"name": "employee",
					"type": "address"
				},
				{
					"internalType": "uint256",
					"name": "period",
					"type": "uint256"
				},
				{
					"internalType": "uint256",
					"name": "usdAmount",
					"type": "uint256"
				},
				{
					"internalType": "bytes",
					"name": "signature",
					"type": "bytes"
				}
			],
			"name": "verifySignature",
			"outputs": [
				{
					"internalType": "bool",
					"name": "",
					"type": "bool"
				}
			],
			"stateMutability": "view",
			"type": "function"
		}
	]
}